{
  "contractName": "TestCertificate",
  "abi": [
    {
      "inputs": [
        {
          "internalType": "address",
          "name": "registry",
          "type": "address"
        }
      ],
      "payable": false,
      "stateMutability": "nonpayable",
      "type": "constructor"
    },
    {
      "anonymous": false,
      "inputs": [
        {
          "indexed": false,
          "internalType": "string",
          "name": "encryptedPatientId",
          "type": "string"
        }
      ],
      "name": "CertificateCreated",
      "type": "event"
    },
    {
      "anonymous": false,
      "inputs": [
        {
          "indexed": false,
          "internalType": "string",
          "name": "encryptedPatientId",
          "type": "string"
        }
      ],
      "name": "CertificateRevoked",
      "type": "event"
    },
    {
      "constant": true,
      "inputs": [],
      "name": "registryContract",
      "outputs": [
        {
          "internalType": "address",
          "name": "",
          "type": "address"
        }
      ],
      "payable": false,
      "stateMutability": "view",
      "type": "function"
    },
    {
      "constant": false,
      "inputs": [
        {
          "internalType": "string",
          "name": "encryptedPatientId",
          "type": "string"
        },
        {
          "internalType": "uint256",
          "name": "testTakenTimestamp",
          "type": "uint256"
        },
        {
          "internalType": "uint256",
          "name": "certificateExpiryTimestamp",
          "type": "uint256"
        },
        {
          "internalType": "string",
          "name": "testType",
          "type": "string"
        },
        {
          "internalType": "string",
          "name": "testResult",
          "type": "string"
        },
        {
          "internalType": "string",
          "name": "encryptedExternalDataPointer",
          "type": "string"
        },
        {
          "internalType": "string",
          "name": "patientAddress",
          "type": "string"
        },
        {
          "internalType": "string",
          "name": "patientGender",
          "type": "string"
        },
        {
          "internalType": "uint256",
          "name": "patientAge",
          "type": "uint256"
        },
        {
          "internalType": "string",
          "name": "digitalSiganture",
          "type": "string"
        }
      ],
      "name": "createTestCertificate",
      "outputs": [],
      "payable": false,
      "stateMutability": "nonpayable",
      "type": "function"
    },
    {
      "constant": false,
      "inputs": [
        {
          "internalType": "string",
          "name": "encryptedPatientId",
          "type": "string"
        }
      ],
      "name": "revokeTestCertificate",
      "outputs": [],
      "payable": false,
      "stateMutability": "nonpayable",
      "type": "function"
    },
    {
      "constant": true,
      "inputs": [
        {
          "internalType": "string",
          "name": "encryptedPatientId",
          "type": "string"
        }
      ],
      "name": "getCertificate",
      "outputs": [
        {
          "internalType": "uint256",
          "name": "testTakenTimestamp",
          "type": "uint256"
        },
        {
          "internalType": "uint256",
          "name": "certificateExpiryTimestamp",
          "type": "uint256"
        },
        {
          "internalType": "string",
          "name": "testType",
          "type": "string"
        },
        {
          "internalType": "string",
          "name": "testResult",
          "type": "string"
        },
        {
          "internalType": "bool",
          "name": "isRevoked",
          "type": "bool"
        },
        {
          "internalType": "string",
          "name": "encryptedExternalDataPointer",
          "type": "string"
        },
        {
          "internalType": "string",
          "name": "digitalSiganture",
          "type": "string"
        }
      ],
      "payable": false,
      "stateMutability": "view",
      "type": "function"
    },
    {
      "constant": true,
      "inputs": [
        {
          "internalType": "string",
          "name": "encryptedPatientId",
          "type": "string"
        }
      ],
      "name": "getPatientDetail",
      "outputs": [
        {
          "internalType": "string",
          "name": "patientAddress",
          "type": "string"
        },
        {
          "internalType": "string",
          "name": "patientGender",
          "type": "string"
        },
        {
          "internalType": "uint256",
          "name": "patientAge",
          "type": "uint256"
        }
      ],
      "payable": false,
      "stateMutability": "view",
      "type": "function"
    },
    {
      "constant": true,
      "inputs": [],
      "name": "getCertificateAmountByTester",
      "outputs": [
        {
          "internalType": "uint256",
          "name": "count",
          "type": "uint256"
        }
      ],
      "payable": false,
      "stateMutability": "view",
      "type": "function"
    },
    {
      "constant": true,
      "inputs": [
        {
          "internalType": "uint256",
          "name": "idx",
          "type": "uint256"
        }
      ],
      "name": "getEncryptedPatientId",
      "outputs": [
        {
          "internalType": "string",
          "name": "",
          "type": "string"
        }
      ],
      "payable": false,
      "stateMutability": "view",
      "type": "function"
    }
  ],
  "bytecode": "0x608060405234801561001057600080fd5b50604051611e69380380611e698339818101604052602081101561003357600080fd5b810190808051906020019092919050505080600360006101000a81548173ffffffffffffffffffffffffffffffffffffffff021916908373ffffffffffffffffffffffffffffffffffffffff16021790555050611dd4806100956000396000f3fe608060405234801561001057600080fd5b506004361061007d5760003560e01c806328c1f99b1161005b57806328c1f99b14610202578063aaada3931461024c578063ce223e9e146103f3578063ed0f2e75146108575761007d565b806303651674146100825780631477d8aa1461013d5780631e8660681461015b575b600080fd5b61013b6004803603602081101561009857600080fd5b81019080803590602001906401000000008111156100b557600080fd5b8201836020820111156100c757600080fd5b803590602001918460018302840111640100000000831117156100e957600080fd5b91908080601f016020809104026020016040519081016040528093929190818152602001838380828437600081840152601f19601f820116905080830192505050505050509192919290505050610ae8565b005b610145610e8b565b6040518082815260200191505060405180910390f35b6101876004803603602081101561017157600080fd5b8101908080359060200190929190505050611021565b6040518080602001828103825283818151815260200191508051906020019080838360005b838110156101c75780820151818401526020810190506101ac565b50505050905090810190601f1680156101f45780820380516001836020036101000a031916815260200191505b509250505060405180910390f35b61020a611263565b604051808273ffffffffffffffffffffffffffffffffffffffff1673ffffffffffffffffffffffffffffffffffffffff16815260200191505060405180910390f35b6103056004803603602081101561026257600080fd5b810190808035906020019064010000000081111561027f57600080fd5b82018360208201111561029157600080fd5b803590602001918460018302840111640100000000831117156102b357600080fd5b91908080601f016020809104026020016040519081016040528093929190818152602001838380828437600081840152601f19601f820116905080830192505050505050509192919290505050611289565b604051808060200180602001848152602001838103835286818151815260200191508051906020019080838360005b8381101561034f578082015181840152602081019050610334565b50505050905090810190601f16801561037c5780820380516001836020036101000a031916815260200191505b50838103825285818151815260200191508051906020019080838360005b838110156103b557808201518184015260208101905061039a565b50505050905090810190601f1680156103e25780820380516001836020036101000a031916815260200191505b509550505050505060405180910390f35b610855600480360361014081101561040a57600080fd5b810190808035906020019064010000000081111561042757600080fd5b82018360208201111561043957600080fd5b8035906020019184600183028401116401000000008311171561045b57600080fd5b91908080601f016020809104026020016040519081016040528093929190818152602001838380828437600081840152601f19601f8201169050808301925050505050505091929192908035906020019092919080359060200190929190803590602001906401000000008111156104d257600080fd5b8201836020820111156104e457600080fd5b8035906020019184600183028401116401000000008311171561050657600080fd5b91908080601f016020809104026020016040519081016040528093929190818152602001838380828437600081840152601f19601f8201169050808301925050505050505091929192908035906020019064010000000081111561056957600080fd5b82018360208201111561057b57600080fd5b8035906020019184600183028401116401000000008311171561059d57600080fd5b91908080601f016020809104026020016040519081016040528093929190818152602001838380828437600081840152601f19601f8201169050808301925050505050505091929192908035906020019064010000000081111561060057600080fd5b82018360208201111561061257600080fd5b8035906020019184600183028401116401000000008311171561063457600080fd5b91908080601f016020809104026020016040519081016040528093929190818152602001838380828437600081840152601f19601f8201169050808301925050505050505091929192908035906020019064010000000081111561069757600080fd5b8201836020820111156106a957600080fd5b803590602001918460018302840111640100000000831117156106cb57600080fd5b91908080601f016020809104026020016040519081016040528093929190818152602001838380828437600081840152601f19601f8201169050808301925050505050505091929192908035906020019064010000000081111561072e57600080fd5b82018360208201111561074057600080fd5b8035906020019184600183028401116401000000008311171561076257600080fd5b91908080601f016020809104026020016040519081016040528093929190818152602001838380828437600081840152601f19601f82011690508083019250505050505050919291929080359060200190929190803590602001906401000000008111156107cf57600080fd5b8201836020820111156107e157600080fd5b8035906020019184600183028401116401000000008311171561080357600080fd5b91908080601f016020809104026020016040519081016040528093929190818152602001838380828437600081840152601f19601f820116905080830192505050505050509192919290505050611447565b005b6109106004803603602081101561086d57600080fd5b810190808035906020019064010000000081111561088a57600080fd5b82018360208201111561089c57600080fd5b803590602001918460018302840111640100000000831117156108be57600080fd5b91908080601f016020809104026020016040519081016040528093929190818152602001838380828437600081840152601f19601f820116905080830192505050505050509192919290505050611930565b60405180888152602001878152602001806020018060200186151515158152602001806020018060200185810385528a818151815260200191508051906020019080838360005b83811015610972578082015181840152602081019050610957565b50505050905090810190601f16801561099f5780820380516001836020036101000a031916815260200191505b50858103845289818151815260200191508051906020019080838360005b838110156109d85780820151818401526020810190506109bd565b50505050905090810190601f168015610a055780820380516001836020036101000a031916815260200191505b50858103835287818151815260200191508051906020019080838360005b83811015610a3e578082015181840152602081019050610a23565b50505050905090810190601f168015610a6b5780820380516001836020036101000a031916815260200191505b50858103825286818151815260200191508051906020019080838360005b83811015610aa4578082015181840152602081019050610a89565b50505050905090810190601f168015610ad15780820380516001836020036101000a031916815260200191505b509b50505050505050505050505060405180910390f35b600360009054906101000a900473ffffffffffffffffffffffffffffffffffffffff1673ffffffffffffffffffffffffffffffffffffffff1663bd630dc7336040518263ffffffff1660e01b8152600401808273ffffffffffffffffffffffffffffffffffffffff1673ffffffffffffffffffffffffffffffffffffffff16815260200191505060206040518083038186803b158015610b8757600080fd5b505afa158015610b9b573d6000803e3d6000fd5b505050506040513d6020811015610bb157600080fd5b8101908080519060200190929190505050610c34576040517f08c379a000000000000000000000000000000000000000000000000000000000815260040180806020018281038252601c8152602001807f4d73672e73656e646572206d7573742062652061207465737465722e0000000081525060200191505060405180910390fd5b600080826040518082805190602001908083835b60208310610c6b5780518252602082019150602081019050602083039250610c48565b6001836020036101000a038019825116818451168082178552505050505050905001915050908152602001604051809103902090503373ffffffffffffffffffffffffffffffffffffffff168160000160009054906101000a900473ffffffffffffffffffffffffffffffffffffffff1673ffffffffffffffffffffffffffffffffffffffff161415610d49576040517f08c379a0000000000000000000000000000000000000000000000000000000008152600401808060200182810382526029815260200180611d776029913960400191505060405180910390fd5b8060050160009054906101000a900460ff1615610dce576040517f08c379a000000000000000000000000000000000000000000000000000000000815260040180806020018281038252601f8152602001807f436572746966696361746520697320616c7265616479207265766f6b65642e0081525060200191505060405180910390fd5b60018160050160006101000a81548160ff0219169083151502179055507f266095b5af7e2323760fef151f1d78896740cd2cc1b73a6357ff9e4c3fdae740826040518080602001828103825283818151815260200191508051906020019080838360005b83811015610e4d578082015181840152602081019050610e32565b50505050905090810190601f168015610e7a5780820380516001836020036101000a031916815260200191505b509250505060405180910390a15050565b6000600360009054906101000a900473ffffffffffffffffffffffffffffffffffffffff1673ffffffffffffffffffffffffffffffffffffffff1663bd630dc7336040518263ffffffff1660e01b8152600401808273ffffffffffffffffffffffffffffffffffffffff1673ffffffffffffffffffffffffffffffffffffffff16815260200191505060206040518083038186803b158015610f2c57600080fd5b505afa158015610f40573d6000803e3d6000fd5b505050506040513d6020811015610f5657600080fd5b8101908080519060200190929190505050610fd9576040517f08c379a000000000000000000000000000000000000000000000000000000000815260040180806020018281038252601c8152602001807f4d73672e73656e646572206d7573742062652061207465737465722e0000000081525060200191505060405180910390fd5b600260003373ffffffffffffffffffffffffffffffffffffffff1673ffffffffffffffffffffffffffffffffffffffff16815260200190815260200160002080549050905090565b6060600360009054906101000a900473ffffffffffffffffffffffffffffffffffffffff1673ffffffffffffffffffffffffffffffffffffffff1663bd630dc7336040518263ffffffff1660e01b8152600401808273ffffffffffffffffffffffffffffffffffffffff1673ffffffffffffffffffffffffffffffffffffffff16815260200191505060206040518083038186803b1580156110c257600080fd5b505afa1580156110d6573d6000803e3d6000fd5b505050506040513d60208110156110ec57600080fd5b810190808051906020019092919050505061116f576040517f08c379a000000000000000000000000000000000000000000000000000000000815260040180806020018281038252601c8152602001807f4d73672e73656e646572206d7573742062652061207465737465722e0000000081525060200191505060405180910390fd5b600260003373ffffffffffffffffffffffffffffffffffffffff1673ffffffffffffffffffffffffffffffffffffffff16815260200190815260200160002082815481106111b957fe5b906000526020600020018054600181600116156101000203166002900480601f0160208091040260200160405190810160405280929190818152602001828054600181600116156101000203166002900480156112575780601f1061122c57610100808354040283529160200191611257565b820191906000526020600020905b81548152906001019060200180831161123a57829003601f168201915b50505050509050919050565b600360009054906101000a900473ffffffffffffffffffffffffffffffffffffffff1681565b6060806000806001856040518082805190602001908083835b602083106112c557805182526020820191506020810190506020830392506112a2565b6001836020036101000a03801982511681845116808217855250505050505090500191505090815260200160405180910390209050806000018054600181600116156101000203166002900480601f0160208091040260200160405190810160405280929190818152602001828054600181600116156101000203166002900480156113925780601f1061136757610100808354040283529160200191611392565b820191906000526020600020905b81548152906001019060200180831161137557829003601f168201915b50505050509350806001018054600181600116156101000203166002900480601f0160208091040260200160405190810160405280929190818152602001828054600181600116156101000203166002900480156114315780601f1061140657610100808354040283529160200191611431565b820191906000526020600020905b81548152906001019060200180831161141457829003601f168201915b5050505050925080600201549150509193909250565b600360009054906101000a900473ffffffffffffffffffffffffffffffffffffffff1673ffffffffffffffffffffffffffffffffffffffff1663bd630dc7336040518263ffffffff1660e01b8152600401808273ffffffffffffffffffffffffffffffffffffffff1673ffffffffffffffffffffffffffffffffffffffff16815260200191505060206040518083038186803b1580156114e657600080fd5b505afa1580156114fa573d6000803e3d6000fd5b505050506040513d602081101561151057600080fd5b8101908080519060200190929190505050611593576040517f08c379a000000000000000000000000000000000000000000000000000000000815260040180806020018281038252601c8152602001807f4d73672e73656e646572206d7573742062652061207465737465722e0000000081525060200191505060405180910390fd5b6040518061010001604052803373ffffffffffffffffffffffffffffffffffffffff1681526020018a81526020018981526020018881526020018781526020016000151581526020018681526020018281525060008b6040518082805190602001908083835b6020831061161c57805182526020820191506020810190506020830392506115f9565b6001836020036101000a038019825116818451168082178552505050505050905001915050908152602001604051809103902060008201518160000160006101000a81548173ffffffffffffffffffffffffffffffffffffffff021916908373ffffffffffffffffffffffffffffffffffffffff160217905550602082015181600101556040820151816002015560608201518160030190805190602001906116c6929190611c51565b5060808201518160040190805190602001906116e3929190611c51565b5060a08201518160050160006101000a81548160ff02191690831515021790555060c0820151816006019080519060200190611720929190611c51565b5060e082015181600701908051906020019061173d929190611c51565b5090505060405180606001604052808581526020018481526020018381525060018b6040518082805190602001908083835b60208310611792578051825260208201915060208101905060208303925061176f565b6001836020036101000a038019825116818451168082178552505050505050905001915050908152602001604051809103902060008201518160000190805190602001906117e1929190611c51565b5060208201518160010190805190602001906117fe929190611c51565b5060408201518160020155905050600260003373ffffffffffffffffffffffffffffffffffffffff1673ffffffffffffffffffffffffffffffffffffffff1681526020019081526020016000208a9080600181540180825580915050906001820390600052602060002001600090919290919091509080519060200190611886929190611cd1565b50507fd19168e8c20ac1764c5fbe166b97468597652885e01058e8dbed2cf41804d2d98a6040518080602001828103825283818151815260200191508051906020019080838360005b838110156118ea5780820151818401526020810190506118cf565b50505050905090810190601f1680156119175780820380516001836020036101000a031916815260200191505b509250505060405180910390a150505050505050505050565b6000806060806000606080600080896040518082805190602001908083835b60208310611972578051825260208201915060208101905060208303925061194f565b6001836020036101000a038019825116818451168082178552505050505050905001915050908152602001604051809103902090508060010154975080600201549650806003018054600181600116156101000203166002900480601f016020809104026020016040519081016040528092919081815260200182805460018160011615610100020316600290048015611a4d5780601f10611a2257610100808354040283529160200191611a4d565b820191906000526020600020905b815481529060010190602001808311611a3057829003601f168201915b50505050509550806004018054600181600116156101000203166002900480601f016020809104026020016040519081016040528092919081815260200182805460018160011615610100020316600290048015611aec5780601f10611ac157610100808354040283529160200191611aec565b820191906000526020600020905b815481529060010190602001808311611acf57829003601f168201915b505050505094508060050160009054906101000a900460ff169350806006018054600181600116156101000203166002900480601f016020809104026020016040519081016040528092919081815260200182805460018160011615610100020316600290048015611b9f5780601f10611b7457610100808354040283529160200191611b9f565b820191906000526020600020905b815481529060010190602001808311611b8257829003601f168201915b50505050509250806007018054600181600116156101000203166002900480601f016020809104026020016040519081016040528092919081815260200182805460018160011615610100020316600290048015611c3e5780601f10611c1357610100808354040283529160200191611c3e565b820191906000526020600020905b815481529060010190602001808311611c2157829003601f168201915b5050505050915050919395979092949650565b828054600181600116156101000203166002900490600052602060002090601f016020900481019282601f10611c9257805160ff1916838001178555611cc0565b82800160010185558215611cc0579182015b82811115611cbf578251825591602001919060010190611ca4565b5b509050611ccd9190611d51565b5090565b828054600181600116156101000203166002900490600052602060002090601f016020900481019282601f10611d1257805160ff1916838001178555611d40565b82800160010185558215611d40579182015b82811115611d3f578251825591602001919060010190611d24565b5b509050611d4d9190611d51565b5090565b611d7391905b80821115611d6f576000816000905550600101611d57565b5090565b9056fe5465737465722063616e206f6e6c79207265766f6b652074686569722063657274696669636174652ea265627a7a72315820a08ae8c6708bc514e623d309f5057bfad772b84866a4e267911f28be111fa04b64736f6c63430005100032",
  "source": "pragma solidity ^0.5.0;\n\nimport \"./TesterRegistry.sol\";\n\ncontract TestCertificate {\n    struct Certificate {\n        address testerAddress;\n        uint testTakenTimestamp;\n        uint certificateExpiryTimestamp;\n        string testType;\n        string testResult;\n        bool isRevoked;\n        string encryptedExternalDataPointer;\n        string digitalSiganture;\n    }\n\n    struct PatientDetail {\n        string patientAddress;\n        string patientGender;\n        uint patientAge;\n    }\n\n    mapping (string=>Certificate) certificates;\n    mapping (string=>PatientDetail) patientsDetail;\n    mapping (address=>string[]) testerCertificates;\n    address public registryContract;\n\n    event CertificateCreated(string encryptedPatientId);\n    event CertificateRevoked(string encryptedPatientId);\n\n    constructor (address registry) public {\n        registryContract = registry;\n    }\n\n    modifier onlyTester {\n        require(TesterRegistry(registryContract).isTester(msg.sender), \"Msg.sender must be a tester.\");\n        _;\n    }\n\n    function createTestCertificate(string memory encryptedPatientId, uint testTakenTimestamp, uint certificateExpiryTimestamp, string memory testType, string memory testResult, string memory encryptedExternalDataPointer, string memory patientAddress, string memory patientGender, uint patientAge, string memory digitalSiganture) public onlyTester {\n        certificates[encryptedPatientId] = Certificate({\n            testerAddress: msg.sender,\n            testTakenTimestamp: testTakenTimestamp,\n            certificateExpiryTimestamp: certificateExpiryTimestamp,\n            testType: testType,\n            testResult: testResult,\n            isRevoked: false,\n            encryptedExternalDataPointer: encryptedExternalDataPointer,\n            digitalSiganture: digitalSiganture\n        });\n\n        patientsDetail[encryptedPatientId] = PatientDetail({\n            patientAddress: patientAddress,\n            patientGender: patientGender,\n            patientAge: patientAge\n        });\n\n        testerCertificates[msg.sender].push(encryptedPatientId);\n\n        emit CertificateCreated(encryptedPatientId);\n    }\n\n    function revokeTestCertificate(string memory encryptedPatientId) public onlyTester {\n        Certificate storage cert = certificates[encryptedPatientId];\n        require(cert.testerAddress != msg.sender, \"Tester can only revoke their certificate.\");\n        require(!cert.isRevoked, \"Certificate is already revoked.\");\n        cert.isRevoked = true;\n\n        emit CertificateRevoked(encryptedPatientId);\n    }\n\n    function getCertificate(string memory encryptedPatientId) public view\n    returns (\n        uint testTakenTimestamp,\n        uint certificateExpiryTimestamp,\n        string memory testType,\n        string memory testResult,\n        bool isRevoked,\n        string memory encryptedExternalDataPointer,\n        string memory digitalSiganture\n    ) {\n        Certificate storage cert = certificates[encryptedPatientId];\n        \n        testTakenTimestamp = cert.testTakenTimestamp;\n        certificateExpiryTimestamp = cert.certificateExpiryTimestamp;\n        testType = cert.testType;\n        testResult = cert.testResult;\n        isRevoked = cert.isRevoked;\n        encryptedExternalDataPointer = cert.encryptedExternalDataPointer;\n        digitalSiganture = cert.digitalSiganture;\n    }\n\n    function getPatientDetail(string memory encryptedPatientId) public view\n    returns (\n        string memory patientAddress,\n        string memory patientGender,\n        uint patientAge\n    ) {\n        PatientDetail storage detail = patientsDetail[encryptedPatientId];\n\n        patientAddress = detail.patientAddress;\n        patientGender = detail.patientGender;\n        patientAge = detail.patientAge;\n    }\n\n    function getCertificateAmountByTester() public view onlyTester returns (uint count) {\n        return testerCertificates[msg.sender].length;\n    }\n\n    function getEncryptedPatientId(uint idx) public view onlyTester returns (string memory) {\n        return testerCertificates[msg.sender][idx];\n    }\n}\n",
  "sourcePath": "/home/rakhmad/kuliah/TA/test-certificate/contracts/TestCertificate.sol",
  "compiler": {
    "name": "solc",
    "version": "0.5.16+commit.9c3226ce.Emscripten.clang"
  },
  "schemaVersion": "3.3.4",
  "updatedAt": "2021-04-22T12:41:14.257Z",
  "networkType": "ethereum",
  "devdoc": {
    "methods": {}
  },
  "userdoc": {
    "methods": {}
  }
}