{
  "contractName": "TestCertificate",
  "abi": [
    {
      "anonymous": false,
      "inputs": [
        {
          "indexed": true,
          "internalType": "uint256",
          "name": "certificateId",
          "type": "uint256"
        },
        {
          "indexed": true,
          "internalType": "string",
          "name": "encryptedPatientId",
          "type": "string"
        },
        {
          "indexed": true,
          "internalType": "address",
          "name": "testerAddress",
          "type": "address"
        },
        {
          "indexed": false,
          "internalType": "uint256",
          "name": "testTakenTimestamp",
          "type": "uint256"
        },
        {
          "indexed": false,
          "internalType": "uint256",
          "name": "certificateExpiryTimestamp",
          "type": "uint256"
        },
        {
          "indexed": false,
          "internalType": "string",
          "name": "testType",
          "type": "string"
        },
        {
          "indexed": false,
          "internalType": "string",
          "name": "testResult",
          "type": "string"
        },
        {
          "indexed": false,
          "internalType": "string",
          "name": "encryptedExternalDataPointer",
          "type": "string"
        },
        {
          "indexed": false,
          "internalType": "string",
          "name": "digitalSignature",
          "type": "string"
        }
      ],
      "name": "CertificateCreated",
      "type": "event"
    },
    {
      "anonymous": false,
      "inputs": [
        {
          "indexed": true,
          "internalType": "uint256",
          "name": "certificateId",
          "type": "uint256"
        }
      ],
      "name": "CertificateRevoked",
      "type": "event"
    },
    {
      "anonymous": false,
      "inputs": [
        {
          "indexed": true,
          "internalType": "uint256",
          "name": "certificateId",
          "type": "uint256"
        },
        {
          "indexed": false,
          "internalType": "string",
          "name": "patientAddress",
          "type": "string"
        },
        {
          "indexed": false,
          "internalType": "string",
          "name": "patientGender",
          "type": "string"
        },
        {
          "indexed": false,
          "internalType": "uint256",
          "name": "patientAge",
          "type": "uint256"
        }
      ],
      "name": "PatientDetailAdded",
      "type": "event"
    },
    {
      "constant": true,
      "inputs": [
        {
          "internalType": "address",
          "name": "",
          "type": "address"
        }
      ],
      "name": "isTester",
      "outputs": [
        {
          "internalType": "bool",
          "name": "",
          "type": "bool"
        }
      ],
      "payable": false,
      "stateMutability": "view",
      "type": "function"
    },
    {
      "constant": true,
      "inputs": [],
      "name": "registryContract",
      "outputs": [
        {
          "internalType": "address",
          "name": "",
          "type": "address"
        }
      ],
      "payable": false,
      "stateMutability": "view",
      "type": "function"
    },
    {
      "constant": false,
      "inputs": [
        {
          "internalType": "string",
          "name": "institutionName",
          "type": "string"
        },
        {
          "internalType": "string",
          "name": "location",
          "type": "string"
        },
        {
          "internalType": "string",
          "name": "contact",
          "type": "string"
        }
      ],
      "name": "register",
      "outputs": [],
      "payable": false,
      "stateMutability": "nonpayable",
      "type": "function"
    },
    {
      "constant": false,
      "inputs": [
        {
          "internalType": "string",
          "name": "encryptedPatientId",
          "type": "string"
        },
        {
          "internalType": "uint256",
          "name": "testTakenTimestamp",
          "type": "uint256"
        },
        {
          "internalType": "uint256",
          "name": "certificateExpiryTimestamp",
          "type": "uint256"
        },
        {
          "internalType": "string",
          "name": "testType",
          "type": "string"
        },
        {
          "internalType": "string",
          "name": "testResult",
          "type": "string"
        },
        {
          "internalType": "string",
          "name": "encryptedExternalDataPointer",
          "type": "string"
        },
        {
          "internalType": "string",
          "name": "patientAddress",
          "type": "string"
        },
        {
          "internalType": "string",
          "name": "patientGender",
          "type": "string"
        },
        {
          "internalType": "uint256",
          "name": "patientAge",
          "type": "uint256"
        },
        {
          "internalType": "string",
          "name": "digitalSignature",
          "type": "string"
        }
      ],
      "name": "createTestCertificate",
      "outputs": [
        {
          "internalType": "uint256",
          "name": "",
          "type": "uint256"
        }
      ],
      "payable": false,
      "stateMutability": "nonpayable",
      "type": "function"
    },
    {
      "constant": false,
      "inputs": [
        {
          "internalType": "uint256",
          "name": "certificateId",
          "type": "uint256"
        }
      ],
      "name": "revokeTestCertificate",
      "outputs": [],
      "payable": false,
      "stateMutability": "nonpayable",
      "type": "function"
    },
    {
      "constant": true,
      "inputs": [
        {
          "internalType": "uint256",
          "name": "certificateId",
          "type": "uint256"
        }
      ],
      "name": "getCertificate",
      "outputs": [
        {
          "internalType": "uint256",
          "name": "testTakenTimestamp",
          "type": "uint256"
        },
        {
          "internalType": "uint256",
          "name": "certificateExpiryTimestamp",
          "type": "uint256"
        },
        {
          "internalType": "string",
          "name": "testType",
          "type": "string"
        },
        {
          "internalType": "string",
          "name": "testResult",
          "type": "string"
        },
        {
          "internalType": "bool",
          "name": "isRevoked",
          "type": "bool"
        },
        {
          "internalType": "string",
          "name": "encryptedExternalDataPointer",
          "type": "string"
        },
        {
          "internalType": "string",
          "name": "digitalSignature",
          "type": "string"
        }
      ],
      "payable": false,
      "stateMutability": "view",
      "type": "function"
    },
    {
      "constant": true,
      "inputs": [
        {
          "internalType": "uint256",
          "name": "certificateId",
          "type": "uint256"
        }
      ],
      "name": "getPatientDetail",
      "outputs": [
        {
          "internalType": "string",
          "name": "patientAddress",
          "type": "string"
        },
        {
          "internalType": "string",
          "name": "patientGender",
          "type": "string"
        },
        {
          "internalType": "uint256",
          "name": "patientAge",
          "type": "uint256"
        }
      ],
      "payable": false,
      "stateMutability": "view",
      "type": "function"
    },
    {
      "constant": true,
      "inputs": [],
      "name": "getCertificateAmountByTester",
      "outputs": [
        {
          "internalType": "uint256",
          "name": "",
          "type": "uint256"
        }
      ],
      "payable": false,
      "stateMutability": "view",
      "type": "function"
    },
    {
      "constant": true,
      "inputs": [
        {
          "internalType": "uint256",
          "name": "idx",
          "type": "uint256"
        }
      ],
      "name": "getEncryptedPatientId",
      "outputs": [
        {
          "internalType": "uint256",
          "name": "",
          "type": "uint256"
        }
      ],
      "payable": false,
      "stateMutability": "view",
      "type": "function"
    }
  ],
  "bytecode": "0x608060405234801561001057600080fd5b50611d29806100206000396000f3fe608060405234801561001057600080fd5b50600436106100935760003560e01c806351640fee1161006657806351640fee1461032b578063779040241461052f578063bd630dc71461055d578063ce223e9e146105b9578063d65b76d514610a3157610093565b80631477d8aa146100985780631e866068146100b657806328c1f99b146100f85780634cd08d0314610142575b600080fd5b6100a0610b4b565b6040518082815260200191505060405180910390f35b6100e2600480360360208110156100cc57600080fd5b8101908080359060200190929190505050610c53565b6040518082815260200191505060405180910390f35b610100610d6f565b604051808273ffffffffffffffffffffffffffffffffffffffff1673ffffffffffffffffffffffffffffffffffffffff16815260200191505060405180910390f35b6103296004803603606081101561015857600080fd5b810190808035906020019064010000000081111561017557600080fd5b82018360208201111561018757600080fd5b803590602001918460018302840111640100000000831117156101a957600080fd5b91908080601f016020809104026020016040519081016040528093929190818152602001838380828437600081840152601f19601f8201169050808301925050505050505091929192908035906020019064010000000081111561020c57600080fd5b82018360208201111561021e57600080fd5b8035906020019184600183028401116401000000008311171561024057600080fd5b91908080601f016020809104026020016040519081016040528093929190818152602001838380828437600081840152601f19601f820116905080830192505050505050509192919290803590602001906401000000008111156102a357600080fd5b8201836020820111156102b557600080fd5b803590602001918460018302840111640100000000831117156102d757600080fd5b91908080601f016020809104026020016040519081016040528093929190818152602001838380828437600081840152601f19601f820116905080830192505050505050509192919290505050610d95565b005b6103576004803603602081101561034157600080fd5b8101908080359060200190929190505050610ea5565b60405180888152602001878152602001806020018060200186151515158152602001806020018060200185810385528a818151815260200191508051906020019080838360005b838110156103b957808201518184015260208101905061039e565b50505050905090810190601f1680156103e65780820380516001836020036101000a031916815260200191505b50858103845289818151815260200191508051906020019080838360005b8381101561041f578082015181840152602081019050610404565b50505050905090810190601f16801561044c5780820380516001836020036101000a031916815260200191505b50858103835287818151815260200191508051906020019080838360005b8381101561048557808201518184015260208101905061046a565b50505050905090810190601f1680156104b25780820380516001836020036101000a031916815260200191505b50858103825286818151815260200191508051906020019080838360005b838110156104eb5780820151818401526020810190506104d0565b50505050905090810190601f1680156105185780820380516001836020036101000a031916815260200191505b509b50505050505050505050505060405180910390f35b61055b6004803603602081101561054557600080fd5b8101908080359060200190929190505050611179565b005b61059f6004803603602081101561057357600080fd5b81019080803573ffffffffffffffffffffffffffffffffffffffff1690602001909291905050506113d2565b604051808215151515815260200191505060405180910390f35b610a1b60048036036101408110156105d057600080fd5b81019080803590602001906401000000008111156105ed57600080fd5b8201836020820111156105ff57600080fd5b8035906020019184600183028401116401000000008311171561062157600080fd5b91908080601f016020809104026020016040519081016040528093929190818152602001838380828437600081840152601f19601f82011690508083019250505050505050919291929080359060200190929190803590602001909291908035906020019064010000000081111561069857600080fd5b8201836020820111156106aa57600080fd5b803590602001918460018302840111640100000000831117156106cc57600080fd5b91908080601f016020809104026020016040519081016040528093929190818152602001838380828437600081840152601f19601f8201169050808301925050505050505091929192908035906020019064010000000081111561072f57600080fd5b82018360208201111561074157600080fd5b8035906020019184600183028401116401000000008311171561076357600080fd5b91908080601f016020809104026020016040519081016040528093929190818152602001838380828437600081840152601f19601f820116905080830192505050505050509192919290803590602001906401000000008111156107c657600080fd5b8201836020820111156107d857600080fd5b803590602001918460018302840111640100000000831117156107fa57600080fd5b91908080601f016020809104026020016040519081016040528093929190818152602001838380828437600081840152601f19601f8201169050808301925050505050505091929192908035906020019064010000000081111561085d57600080fd5b82018360208201111561086f57600080fd5b8035906020019184600183028401116401000000008311171561089157600080fd5b91908080601f016020809104026020016040519081016040528093929190818152602001838380828437600081840152601f19601f820116905080830192505050505050509192919290803590602001906401000000008111156108f457600080fd5b82018360208201111561090657600080fd5b8035906020019184600183028401116401000000008311171561092857600080fd5b91908080601f016020809104026020016040519081016040528093929190818152602001838380828437600081840152601f19601f820116905080830192505050505050509192919290803590602001909291908035906020019064010000000081111561099557600080fd5b8201836020820111156109a757600080fd5b803590602001918460018302840111640100000000831117156109c957600080fd5b91908080601f016020809104026020016040519081016040528093929190818152602001838380828437600081840152601f19601f8201169050808301925050505050505091929192905050506113f2565b6040518082815260200191505060405180910390f35b610a5d60048036036020811015610a4757600080fd5b8101908080359060200190929190505050611ab6565b604051808060200180602001848152602001838103835286818151815260200191508051906020019080838360005b83811015610aa7578082015181840152602081019050610a8c565b50505050905090810190601f168015610ad45780820380516001836020036101000a031916815260200191505b50838103825285818151815260200191508051906020019080838360005b83811015610b0d578082015181840152602081019050610af2565b50505050905090810190601f168015610b3a5780820380516001836020036101000a031916815260200191505b509550505050505060405180910390f35b60008060003373ffffffffffffffffffffffffffffffffffffffff1673ffffffffffffffffffffffffffffffffffffffff16815260200190815260200160002060009054906101000a900460ff16610c0b576040517f08c379a000000000000000000000000000000000000000000000000000000000815260040180806020018281038252601c8152602001807f4d73672e73656e646572206d7573742062652061207465737465722e0000000081525060200191505060405180910390fd5b600460003373ffffffffffffffffffffffffffffffffffffffff1673ffffffffffffffffffffffffffffffffffffffff16815260200190815260200160002080549050905090565b60008060003373ffffffffffffffffffffffffffffffffffffffff1673ffffffffffffffffffffffffffffffffffffffff16815260200190815260200160002060009054906101000a900460ff16610d13576040517f08c379a000000000000000000000000000000000000000000000000000000000815260040180806020018281038252601c8152602001807f4d73672e73656e646572206d7573742062652061207465737465722e0000000081525060200191505060405180910390fd5b600460003373ffffffffffffffffffffffffffffffffffffffff1673ffffffffffffffffffffffffffffffffffffffff1681526020019081526020016000208281548110610d5d57fe5b90600052602060002001549050919050565b600560009054906101000a900473ffffffffffffffffffffffffffffffffffffffff1681565b60016000803373ffffffffffffffffffffffffffffffffffffffff1673ffffffffffffffffffffffffffffffffffffffff16815260200190815260200160002060006101000a81548160ff021916908315150217905550604051806060016040528084815260200183815260200182815250600160003373ffffffffffffffffffffffffffffffffffffffff1673ffffffffffffffffffffffffffffffffffffffff1681526020019081526020016000206000820151816000019080519060200190610e62929190611c26565b506020820151816001019080519060200190610e7f929190611c26565b506040820151816002019080519060200190610e9c929190611c26565b50905050505050565b6000806060806000606080600060028981548110610ebf57fe5b906000526020600020906009020190508060020154975080600301549650806004018054600181600116156101000203166002900480601f016020809104026020016040519081016040528092919081815260200182805460018160011615610100020316600290048015610f755780601f10610f4a57610100808354040283529160200191610f75565b820191906000526020600020905b815481529060010190602001808311610f5857829003601f168201915b50505050509550806005018054600181600116156101000203166002900480601f0160208091040260200160405190810160405280929190818152602001828054600181600116156101000203166002900480156110145780601f10610fe957610100808354040283529160200191611014565b820191906000526020600020905b815481529060010190602001808311610ff757829003601f168201915b505050505094508060060160009054906101000a900460ff169350806007018054600181600116156101000203166002900480601f0160208091040260200160405190810160405280929190818152602001828054600181600116156101000203166002900480156110c75780601f1061109c576101008083540402835291602001916110c7565b820191906000526020600020905b8154815290600101906020018083116110aa57829003601f168201915b50505050509250806008018054600181600116156101000203166002900480601f0160208091040260200160405190810160405280929190818152602001828054600181600116156101000203166002900480156111665780601f1061113b57610100808354040283529160200191611166565b820191906000526020600020905b81548152906001019060200180831161114957829003601f168201915b5050505050915050919395979092949650565b6000803373ffffffffffffffffffffffffffffffffffffffff1673ffffffffffffffffffffffffffffffffffffffff16815260200190815260200160002060009054906101000a900460ff16611237576040517f08c379a000000000000000000000000000000000000000000000000000000000815260040180806020018281038252601c8152602001807f4d73672e73656e646572206d7573742062652061207465737465722e0000000081525060200191505060405180910390fd5b60006002828154811061124657fe5b906000526020600020906009020190503373ffffffffffffffffffffffffffffffffffffffff168160010160009054906101000a900473ffffffffffffffffffffffffffffffffffffffff1673ffffffffffffffffffffffffffffffffffffffff1614156112ff576040517f08c379a0000000000000000000000000000000000000000000000000000000008152600401808060200182810382526029815260200180611ccc6029913960400191505060405180910390fd5b8060060160009054906101000a900460ff1615611384576040517f08c379a000000000000000000000000000000000000000000000000000000000815260040180806020018281038252601f8152602001807f436572746966696361746520697320616c7265616479207265766f6b65642e0081525060200191505060405180910390fd5b60018160060160006101000a81548160ff021916908315150217905550817fefa6c5f47ac2523bb4db18032377bf7fdce0fa9d86eddcae1ca9bba38be615d760405160405180910390a25050565b60006020528060005260406000206000915054906101000a900460ff1681565b60008060003373ffffffffffffffffffffffffffffffffffffffff1673ffffffffffffffffffffffffffffffffffffffff16815260200190815260200160002060009054906101000a900460ff166114b2576040517f08c379a000000000000000000000000000000000000000000000000000000000815260040180806020018281038252601c8152602001807f4d73672e73656e646572206d7573742062652061207465737465722e0000000081525060200191505060405180910390fd5b600060028054905090506040518061012001604052808d81526020013373ffffffffffffffffffffffffffffffffffffffff1681526020018c81526020018b81526020018a8152602001898152602001600015158152602001888152602001848152506002828154811061152257fe5b9060005260206000209060090201600082015181600001908051906020019061154c929190611c26565b5060208201518160010160006101000a81548173ffffffffffffffffffffffffffffffffffffffff021916908373ffffffffffffffffffffffffffffffffffffffff160217905550604082015181600201556060820151816003015560808201518160040190805190602001906115c4929190611c26565b5060a08201518160050190805190602001906115e1929190611c26565b5060c08201518160060160006101000a81548160ff02191690831515021790555060e082015181600701908051906020019061161e929190611c26565b5061010082015181600801908051906020019061163c929190611c26565b509050503373ffffffffffffffffffffffffffffffffffffffff168c6040518082805190602001908083835b6020831061168b5780518252602082019150602081019050602083039250611668565b6001836020036101000a0380198251168184511680821785525050505050509050019150506040518091039020827fa4768dab537b80096ff4f8e91a65f4d57b902193357e3abfbaf7e6a5767323148e8e8e8e8e8b6040518087815260200186815260200180602001806020018060200180602001858103855289818151815260200191508051906020019080838360005b8381101561173857808201518184015260208101905061171d565b50505050905090810190601f1680156117655780820380516001836020036101000a031916815260200191505b50858103845288818151815260200191508051906020019080838360005b8381101561179e578082015181840152602081019050611783565b50505050905090810190601f1680156117cb5780820380516001836020036101000a031916815260200191505b50858103835287818151815260200191508051906020019080838360005b838110156118045780820151818401526020810190506117e9565b50505050905090810190601f1680156118315780820380516001836020036101000a031916815260200191505b50858103825286818151815260200191508051906020019080838360005b8381101561186a57808201518184015260208101905061184f565b50505050905090810190601f1680156118975780820380516001836020036101000a031916815260200191505b509a505050505050505050505060405180910390a4604051806060016040528087815260200186815260200185815250600382815481106118d457fe5b906000526020600020906003020160008201518160000190805190602001906118fe929190611c26565b50602082015181600101908051906020019061191b929190611c26565b5060408201518160020155905050807f206a52e63beb0d2ec0d50aee69a9fa9f406ff58a6d9818490adb412c0ffdb517878787604051808060200180602001848152602001838103835286818151815260200191508051906020019080838360005b8381101561199857808201518184015260208101905061197d565b50505050905090810190601f1680156119c55780820380516001836020036101000a031916815260200191505b50838103825285818151815260200191508051906020019080838360005b838110156119fe5780820151818401526020810190506119e3565b50505050905090810190601f168015611a2b5780820380516001836020036101000a031916815260200191505b509550505050505060405180910390a2600460003373ffffffffffffffffffffffffffffffffffffffff1673ffffffffffffffffffffffffffffffffffffffff168152602001908152602001600020819080600181540180825580915050906001820390600052602060002001600090919290919091505550809150509a9950505050505050505050565b60608060008060038581548110611ac957fe5b90600052602060002090600302019050806000018054600181600116156101000203166002900480601f016020809104026020016040519081016040528092919081815260200182805460018160011615610100020316600290048015611b715780601f10611b4657610100808354040283529160200191611b71565b820191906000526020600020905b815481529060010190602001808311611b5457829003601f168201915b50505050509350806001018054600181600116156101000203166002900480601f016020809104026020016040519081016040528092919081815260200182805460018160011615610100020316600290048015611c105780601f10611be557610100808354040283529160200191611c10565b820191906000526020600020905b815481529060010190602001808311611bf357829003601f168201915b5050505050925080600201549150509193909250565b828054600181600116156101000203166002900490600052602060002090601f016020900481019282601f10611c6757805160ff1916838001178555611c95565b82800160010185558215611c95579182015b82811115611c94578251825591602001919060010190611c79565b5b509050611ca29190611ca6565b5090565b611cc891905b80821115611cc4576000816000905550600101611cac565b5090565b9056fe5465737465722063616e206f6e6c79207265766f6b652074686569722063657274696669636174652ea265627a7a723158206d7b3a70dc20a9ffe4096917d2d7a9ec865363e55f3aa3691938c5fe06d2139964736f6c63430005100032",
  "source": "pragma solidity ^0.5.0;\n\ncontract TestCertificate {\n    struct Tester {\n        string institutionName;\n        string location;\n        string contact; \n    }\n\n    struct Certificate {\n        string encryptedPatientId;\n        address testerAddress;\n        uint testTakenTimestamp;\n        uint certificateExpiryTimestamp;\n        string testType;\n        string testResult;\n        bool isRevoked;\n        string encryptedExternalDataPointer;\n        string digitalSignature;\n    }\n\n    struct PatientDetail {\n        string patientAddress;\n        string patientGender;\n        uint patientAge;\n    }\n\n    // tester registry\n    mapping(address=>bool) public isTester;\n    mapping (address=>Tester) testers;\n\n    // test certificate\n    Certificate[] certificates;\n    PatientDetail[] patientsDetail;\n    mapping (address=>uint[]) testerCertificates;\n    address public registryContract;\n\n    event CertificateCreated(uint indexed certificateId, string indexed encryptedPatientId, address indexed testerAddress, uint testTakenTimestamp, uint certificateExpiryTimestamp, string testType, string testResult, string encryptedExternalDataPointer, string digitalSignature);\n    event CertificateRevoked(uint indexed certificateId);\n    event PatientDetailAdded(uint indexed certificateId, string patientAddress, string patientGender, uint patientAge);\n\n    modifier onlyTester {\n        require(isTester[msg.sender], \"Msg.sender must be a tester.\");\n        _;\n    }\n\n    modifier notTester {\n        require(!isTester[msg.sender], \"Msg.sender already a tester.\");\n        _;\n    }\n\n    function register(string memory institutionName, string memory location, string memory contact) public {\n        isTester[msg.sender] = true;\n        testers[msg.sender] = Tester({\n            institutionName: institutionName,\n            location: location,\n            contact: contact\n        });\n    }\n\n    function createTestCertificate(string memory encryptedPatientId, uint testTakenTimestamp, uint certificateExpiryTimestamp, string memory testType, string memory testResult, string memory encryptedExternalDataPointer, string memory patientAddress, string memory patientGender, uint patientAge, string memory digitalSignature) public onlyTester returns (uint) {\n        uint certificateId = certificates.length;\n\n        certificates[certificateId] = Certificate({\n            encryptedPatientId: encryptedPatientId,\n            testerAddress: msg.sender,\n            testTakenTimestamp: testTakenTimestamp,\n            certificateExpiryTimestamp: certificateExpiryTimestamp,\n            testType: testType,\n            testResult: testResult,\n            isRevoked: false,\n            encryptedExternalDataPointer: encryptedExternalDataPointer,\n            digitalSignature: digitalSignature\n        });\n\n        emit CertificateCreated(certificateId, encryptedPatientId, msg.sender, testTakenTimestamp, certificateExpiryTimestamp, testType, testResult, encryptedExternalDataPointer, digitalSignature);\n\n        patientsDetail[certificateId] = PatientDetail({\n            patientAddress: patientAddress,\n            patientGender: patientGender,\n            patientAge: patientAge\n        });\n\n\n        emit PatientDetailAdded(certificateId, patientAddress, patientGender, patientAge);\n\n        testerCertificates[msg.sender].push(certificateId);\n\n        return certificateId;\n    }\n\n    function revokeTestCertificate(uint certificateId) public onlyTester {\n        Certificate storage cert = certificates[certificateId];\n        require(cert.testerAddress != msg.sender, \"Tester can only revoke their certificate.\");\n        require(!cert.isRevoked, \"Certificate is already revoked.\");\n        cert.isRevoked = true;\n\n        emit CertificateRevoked(certificateId);\n    }\n\n    function getCertificate(uint certificateId) public view\n    returns (\n        uint testTakenTimestamp,\n        uint certificateExpiryTimestamp,\n        string memory testType,\n        string memory testResult,\n        bool isRevoked,\n        string memory encryptedExternalDataPointer,\n        string memory digitalSignature\n    ) {\n        Certificate storage cert = certificates[certificateId];\n        \n        testTakenTimestamp = cert.testTakenTimestamp;\n        certificateExpiryTimestamp = cert.certificateExpiryTimestamp;\n        testType = cert.testType;\n        testResult = cert.testResult;\n        isRevoked = cert.isRevoked;\n        encryptedExternalDataPointer = cert.encryptedExternalDataPointer;\n        digitalSignature = cert.digitalSignature;\n    }\n\n    function getPatientDetail(uint certificateId) public view\n    returns (\n        string memory patientAddress,\n        string memory patientGender,\n        uint patientAge\n    ) {\n        PatientDetail storage detail = patientsDetail[certificateId];\n\n        patientAddress = detail.patientAddress;\n        patientGender = detail.patientGender;\n        patientAge = detail.patientAge;\n    }\n\n    function getCertificateAmountByTester() public view onlyTester returns (uint) {\n        return testerCertificates[msg.sender].length;\n    }\n\n    function getEncryptedPatientId(uint idx) public view onlyTester returns (uint) {\n        return testerCertificates[msg.sender][idx];\n    }\n}\n",
  "sourcePath": "/home/rakhmad/kuliah/TA/test-certificate/contracts/TestCertificate.sol",
  "compiler": {
    "name": "solc",
    "version": "0.5.16+commit.9c3226ce.Emscripten.clang"
  },
  "schemaVersion": "3.3.4",
  "updatedAt": "2021-04-23T09:37:23.807Z",
  "devdoc": {
    "methods": {}
  },
  "userdoc": {
    "methods": {}
  }
}