{
  "contractName": "TesterRegistry",
  "abi": [
    {
      "constant": true,
      "inputs": [
        {
          "internalType": "address",
          "name": "",
          "type": "address"
        }
      ],
      "name": "isTester",
      "outputs": [
        {
          "internalType": "bool",
          "name": "",
          "type": "bool"
        }
      ],
      "payable": false,
      "stateMutability": "view",
      "type": "function"
    },
    {
      "constant": false,
      "inputs": [
        {
          "internalType": "string",
          "name": "institutionName",
          "type": "string"
        },
        {
          "internalType": "string",
          "name": "location",
          "type": "string"
        },
        {
          "internalType": "string",
          "name": "contact",
          "type": "string"
        }
      ],
      "name": "register",
      "outputs": [],
      "payable": false,
      "stateMutability": "nonpayable",
      "type": "function"
    }
  ],
  "bytecode": "0x608060405234801561001057600080fd5b5061048a806100206000396000f3fe608060405234801561001057600080fd5b50600436106100365760003560e01c80634cd08d031461003b578063bd630dc714610224575b600080fd5b6102226004803603606081101561005157600080fd5b810190808035906020019064010000000081111561006e57600080fd5b82018360208201111561008057600080fd5b803590602001918460018302840111640100000000831117156100a257600080fd5b91908080601f016020809104026020016040519081016040528093929190818152602001838380828437600081840152601f19601f8201169050808301925050505050505091929192908035906020019064010000000081111561010557600080fd5b82018360208201111561011757600080fd5b8035906020019184600183028401116401000000008311171561013957600080fd5b91908080601f016020809104026020016040519081016040528093929190818152602001838380828437600081840152601f19601f8201169050808301925050505050505091929192908035906020019064010000000081111561019c57600080fd5b8201836020820111156101ae57600080fd5b803590602001918460018302840111640100000000831117156101d057600080fd5b91908080601f016020809104026020016040519081016040528093929190818152602001838380828437600081840152601f19601f820116905080830192505050505050509192919290505050610280565b005b6102666004803603602081101561023a57600080fd5b81019080803573ffffffffffffffffffffffffffffffffffffffff169060200190929190505050610390565b604051808215151515815260200191505060405180910390f35b60016000803373ffffffffffffffffffffffffffffffffffffffff1673ffffffffffffffffffffffffffffffffffffffff16815260200190815260200160002060006101000a81548160ff021916908315150217905550604051806060016040528084815260200183815260200182815250600160003373ffffffffffffffffffffffffffffffffffffffff1673ffffffffffffffffffffffffffffffffffffffff168152602001908152602001600020600082015181600001908051906020019061034d9291906103b0565b50602082015181600101908051906020019061036a9291906103b0565b5060408201518160020190805190602001906103879291906103b0565b50905050505050565b60006020528060005260406000206000915054906101000a900460ff1681565b828054600181600116156101000203166002900490600052602060002090601f016020900481019282601f106103f157805160ff191683800117855561041f565b8280016001018555821561041f579182015b8281111561041e578251825591602001919060010190610403565b5b50905061042c9190610430565b5090565b61045291905b8082111561044e576000816000905550600101610436565b5090565b9056fea265627a7a723158209ee7c99b77be932ba3d4d3af52d1c6a5fbf64333dcd3bc7f91e3df6aff0d118664736f6c63430005100032",
  "source": "pragma solidity ^0.5.0;\n\ncontract TesterRegistry {\n    struct Tester {\n        string institutionName;\n        string location;\n        string contact; \n    }\n\n    mapping(address=>bool) public isTester;\n    mapping (address=>Tester) testers;\n\n    modifier notTester {\n        require(!isTester[msg.sender], \"Msg.sender already a tester.\");\n        _;\n    }\n\n    function register(string memory institutionName, string memory location, string memory contact) public {\n        isTester[msg.sender] = true;\n        testers[msg.sender] = Tester({\n            institutionName: institutionName,\n            location: location,\n            contact: contact\n        });\n    }\n}",
  "sourcePath": "/home/rakhmad/kuliah/TA/test-certificate/contracts/TesterRegistry.sol",
  "compiler": {
    "name": "solc",
    "version": "0.5.16+commit.9c3226ce.Emscripten.clang"
  },
  "schemaVersion": "3.3.4",
  "updatedAt": "2021-04-15T05:31:22.245Z",
  "networkType": "ethereum",
  "devdoc": {
    "methods": {}
  },
  "userdoc": {
    "methods": {}
  }
}