{
  "contractName": "TestCertificate",
  "abi": [
    {
      "inputs": [
        {
          "internalType": "address[]",
          "name": "authorities",
          "type": "address[]"
        }
      ],
      "payable": false,
      "stateMutability": "nonpayable",
      "type": "constructor"
    },
    {
      "anonymous": false,
      "inputs": [
        {
          "indexed": true,
          "internalType": "address",
          "name": "authorityAddress",
          "type": "address"
        }
      ],
      "name": "AuthorityAdded",
      "type": "event"
    },
    {
      "anonymous": false,
      "inputs": [
        {
          "indexed": true,
          "internalType": "uint256",
          "name": "certificateId",
          "type": "uint256"
        },
        {
          "indexed": true,
          "internalType": "string",
          "name": "encryptedPatientId",
          "type": "string"
        },
        {
          "indexed": true,
          "internalType": "address",
          "name": "testerAddress",
          "type": "address"
        },
        {
          "indexed": false,
          "internalType": "uint256",
          "name": "testTakenTimestamp",
          "type": "uint256"
        },
        {
          "indexed": false,
          "internalType": "uint256",
          "name": "certificateExpiryTimestamp",
          "type": "uint256"
        },
        {
          "indexed": false,
          "internalType": "string",
          "name": "testType",
          "type": "string"
        },
        {
          "indexed": false,
          "internalType": "string",
          "name": "testResult",
          "type": "string"
        },
        {
          "indexed": false,
          "internalType": "string",
          "name": "encryptedExternalDataPointer",
          "type": "string"
        },
        {
          "indexed": false,
          "internalType": "string",
          "name": "digitalSignature",
          "type": "string"
        },
        {
          "indexed": false,
          "internalType": "string",
          "name": "additionalInfo",
          "type": "string"
        }
      ],
      "name": "CertificateCreated",
      "type": "event"
    },
    {
      "anonymous": false,
      "inputs": [
        {
          "indexed": true,
          "internalType": "uint256",
          "name": "certificateId",
          "type": "uint256"
        }
      ],
      "name": "CertificateRevoked",
      "type": "event"
    },
    {
      "anonymous": false,
      "inputs": [
        {
          "indexed": true,
          "internalType": "uint256",
          "name": "certificateId",
          "type": "uint256"
        },
        {
          "indexed": false,
          "internalType": "string",
          "name": "patientAddress",
          "type": "string"
        },
        {
          "indexed": false,
          "internalType": "string",
          "name": "patientGender",
          "type": "string"
        },
        {
          "indexed": false,
          "internalType": "uint256",
          "name": "patientAge",
          "type": "uint256"
        }
      ],
      "name": "PatientDetailAdded",
      "type": "event"
    },
    {
      "anonymous": false,
      "inputs": [
        {
          "indexed": true,
          "internalType": "address",
          "name": "testerAddress",
          "type": "address"
        }
      ],
      "name": "TesterApproved",
      "type": "event"
    },
    {
      "anonymous": false,
      "inputs": [
        {
          "indexed": true,
          "internalType": "address",
          "name": "testerAddress",
          "type": "address"
        },
        {
          "indexed": true,
          "internalType": "string",
          "name": "institutionName",
          "type": "string"
        },
        {
          "indexed": true,
          "internalType": "string",
          "name": "location",
          "type": "string"
        },
        {
          "indexed": false,
          "internalType": "string",
          "name": "contact",
          "type": "string"
        }
      ],
      "name": "TesterRegistered",
      "type": "event"
    },
    {
      "anonymous": false,
      "inputs": [
        {
          "indexed": true,
          "internalType": "address",
          "name": "testerAddress",
          "type": "address"
        }
      ],
      "name": "TesterRevoked",
      "type": "event"
    },
    {
      "constant": true,
      "inputs": [
        {
          "internalType": "address",
          "name": "",
          "type": "address"
        }
      ],
      "name": "isAuthority",
      "outputs": [
        {
          "internalType": "bool",
          "name": "",
          "type": "bool"
        }
      ],
      "payable": false,
      "stateMutability": "view",
      "type": "function"
    },
    {
      "constant": true,
      "inputs": [
        {
          "internalType": "address",
          "name": "",
          "type": "address"
        }
      ],
      "name": "isTester",
      "outputs": [
        {
          "internalType": "bool",
          "name": "",
          "type": "bool"
        }
      ],
      "payable": false,
      "stateMutability": "view",
      "type": "function"
    },
    {
      "constant": true,
      "inputs": [
        {
          "internalType": "address",
          "name": "",
          "type": "address"
        }
      ],
      "name": "isTesterApproved",
      "outputs": [
        {
          "internalType": "bool",
          "name": "",
          "type": "bool"
        }
      ],
      "payable": false,
      "stateMutability": "view",
      "type": "function"
    },
    {
      "constant": false,
      "inputs": [
        {
          "internalType": "string",
          "name": "institutionName",
          "type": "string"
        },
        {
          "internalType": "string",
          "name": "location",
          "type": "string"
        },
        {
          "internalType": "string",
          "name": "contact",
          "type": "string"
        }
      ],
      "name": "register",
      "outputs": [],
      "payable": false,
      "stateMutability": "nonpayable",
      "type": "function"
    },
    {
      "constant": true,
      "inputs": [
        {
          "internalType": "address",
          "name": "testerAddress",
          "type": "address"
        }
      ],
      "name": "getTesterDetail",
      "outputs": [
        {
          "internalType": "string",
          "name": "institutionName",
          "type": "string"
        },
        {
          "internalType": "string",
          "name": "location",
          "type": "string"
        },
        {
          "internalType": "string",
          "name": "contact",
          "type": "string"
        }
      ],
      "payable": false,
      "stateMutability": "view",
      "type": "function"
    },
    {
      "constant": false,
      "inputs": [
        {
          "internalType": "string",
          "name": "encryptedPatientId",
          "type": "string"
        },
        {
          "internalType": "uint256",
          "name": "testTakenTimestamp",
          "type": "uint256"
        },
        {
          "internalType": "uint256",
          "name": "certificateExpiryTimestamp",
          "type": "uint256"
        },
        {
          "internalType": "string",
          "name": "testType",
          "type": "string"
        },
        {
          "internalType": "string",
          "name": "testResult",
          "type": "string"
        },
        {
          "internalType": "string",
          "name": "encryptedExternalDataPointer",
          "type": "string"
        },
        {
          "internalType": "string",
          "name": "patientAddress",
          "type": "string"
        },
        {
          "internalType": "string",
          "name": "patientGender",
          "type": "string"
        },
        {
          "internalType": "uint256",
          "name": "patientAge",
          "type": "uint256"
        },
        {
          "internalType": "string",
          "name": "digitalSignature",
          "type": "string"
        },
        {
          "internalType": "string",
          "name": "additionalInfo",
          "type": "string"
        }
      ],
      "name": "createTestCertificate",
      "outputs": [
        {
          "internalType": "uint256",
          "name": "id",
          "type": "uint256"
        }
      ],
      "payable": false,
      "stateMutability": "nonpayable",
      "type": "function"
    },
    {
      "constant": false,
      "inputs": [
        {
          "internalType": "uint256",
          "name": "certificateId",
          "type": "uint256"
        }
      ],
      "name": "revokeTestCertificate",
      "outputs": [],
      "payable": false,
      "stateMutability": "nonpayable",
      "type": "function"
    },
    {
      "constant": true,
      "inputs": [
        {
          "internalType": "uint256",
          "name": "certificateId",
          "type": "uint256"
        }
      ],
      "name": "getCertificate",
      "outputs": [
        {
          "internalType": "string",
          "name": "encryptedPatientId",
          "type": "string"
        },
        {
          "internalType": "uint256",
          "name": "testTakenTimestamp",
          "type": "uint256"
        },
        {
          "internalType": "uint256",
          "name": "certificateExpiryTimestamp",
          "type": "uint256"
        },
        {
          "internalType": "string",
          "name": "testType",
          "type": "string"
        },
        {
          "internalType": "string",
          "name": "testResult",
          "type": "string"
        },
        {
          "internalType": "bool",
          "name": "isRevoked",
          "type": "bool"
        },
        {
          "internalType": "string",
          "name": "encryptedExternalDataPointer",
          "type": "string"
        },
        {
          "internalType": "string",
          "name": "additionalInfo",
          "type": "string"
        }
      ],
      "payable": false,
      "stateMutability": "view",
      "type": "function"
    },
    {
      "constant": true,
      "inputs": [
        {
          "internalType": "uint256",
          "name": "certificateId",
          "type": "uint256"
        }
      ],
      "name": "getPatientDetail",
      "outputs": [
        {
          "internalType": "string",
          "name": "patientAddress",
          "type": "string"
        },
        {
          "internalType": "string",
          "name": "patientGender",
          "type": "string"
        },
        {
          "internalType": "uint256",
          "name": "patientAge",
          "type": "uint256"
        }
      ],
      "payable": false,
      "stateMutability": "view",
      "type": "function"
    },
    {
      "constant": true,
      "inputs": [
        {
          "internalType": "uint256",
          "name": "certificateId",
          "type": "uint256"
        }
      ],
      "name": "getCertificateDigitalSignature",
      "outputs": [
        {
          "internalType": "address",
          "name": "testerAddress",
          "type": "address"
        },
        {
          "internalType": "string",
          "name": "digitalSignature",
          "type": "string"
        }
      ],
      "payable": false,
      "stateMutability": "view",
      "type": "function"
    },
    {
      "constant": true,
      "inputs": [],
      "name": "getCertificateAmountByTester",
      "outputs": [
        {
          "internalType": "uint256",
          "name": "amount",
          "type": "uint256"
        }
      ],
      "payable": false,
      "stateMutability": "view",
      "type": "function"
    },
    {
      "constant": true,
      "inputs": [
        {
          "internalType": "uint256",
          "name": "idx",
          "type": "uint256"
        }
      ],
      "name": "getCertificateId",
      "outputs": [
        {
          "internalType": "uint256",
          "name": "certificateId",
          "type": "uint256"
        }
      ],
      "payable": false,
      "stateMutability": "view",
      "type": "function"
    },
    {
      "constant": true,
      "inputs": [],
      "name": "getCertificatesAmount",
      "outputs": [
        {
          "internalType": "uint256",
          "name": "amount",
          "type": "uint256"
        }
      ],
      "payable": false,
      "stateMutability": "view",
      "type": "function"
    },
    {
      "constant": false,
      "inputs": [
        {
          "internalType": "address",
          "name": "tester",
          "type": "address"
        }
      ],
      "name": "approveTester",
      "outputs": [],
      "payable": false,
      "stateMutability": "nonpayable",
      "type": "function"
    },
    {
      "constant": false,
      "inputs": [
        {
          "internalType": "address",
          "name": "tester",
          "type": "address"
        }
      ],
      "name": "revokeTester",
      "outputs": [],
      "payable": false,
      "stateMutability": "nonpayable",
      "type": "function"
    },
    {
      "constant": false,
      "inputs": [
        {
          "internalType": "address",
          "name": "authority",
          "type": "address"
        }
      ],
      "name": "addAuthority",
      "outputs": [],
      "payable": false,
      "stateMutability": "nonpayable",
      "type": "function"
    }
  ],
  "bytecode": "0x60806040523480156200001157600080fd5b506040516200314938038062003149833981810160405260208110156200003757600080fd5b81019080805160405193929190846401000000008211156200005857600080fd5b838201915060208201858111156200006f57600080fd5b82518660208202830111640100000000821117156200008d57600080fd5b8083526020830192505050908051906020019060200280838360005b83811015620000c6578082015181840152602081019050620000a9565b5050505090500160405250505060008090505b81518110156200015c576001600080848481518110620000f557fe5b602002602001015173ffffffffffffffffffffffffffffffffffffffff1673ffffffffffffffffffffffffffffffffffffffff16815260200190815260200160002060006101000a81548160ff0219169083151502179055508080600101915050620000d9565b5050612fdb806200016e6000396000f3fe608060405234801561001057600080fd5b50600436106101005760003560e01c80639df2e9e711610097578063bd9c000e11610066578063bd9c000e14610e08578063d57374be14610e4a578063d65b76d514610f24578063ec142ed91461103e57610100565b80639df2e9e7146106ac578063a23f9f8014610708578063a509265f1461089d578063bd630dc714610dac57610100565b806338356a23116100d357806338356a23146101e15780634cd08d031461022557806351640fee1461040e578063779040241461067e57610100565b80631477d8aa146101055780631fe2179e146101235780632330f2471461014157806326defa731461019d575b600080fd5b61010d611082565b6040518082815260200191505060405180910390f35b61012b61118b565b6040518082815260200191505060405180910390f35b6101836004803603602081101561015757600080fd5b81019080803573ffffffffffffffffffffffffffffffffffffffff169060200190929190505050611198565b604051808215151515815260200191505060405180910390f35b6101df600480360360208110156101b357600080fd5b81019080803573ffffffffffffffffffffffffffffffffffffffff1690602001909291905050506111b8565b005b610223600480360360208110156101f757600080fd5b81019080803573ffffffffffffffffffffffffffffffffffffffff1690602001909291905050506113d2565b005b61040c6004803603606081101561023b57600080fd5b810190808035906020019064010000000081111561025857600080fd5b82018360208201111561026a57600080fd5b8035906020019184600183028401116401000000008311171561028c57600080fd5b91908080601f016020809104026020016040519081016040528093929190818152602001838380828437600081840152601f19601f820116905080830192505050505050509192919290803590602001906401000000008111156102ef57600080fd5b82018360208201111561030157600080fd5b8035906020019184600183028401116401000000008311171561032357600080fd5b91908080601f016020809104026020016040519081016040528093929190818152602001838380828437600081840152601f19601f8201169050808301925050505050505091929192908035906020019064010000000081111561038657600080fd5b82018360208201111561039857600080fd5b803590602001918460018302840111640100000000831117156103ba57600080fd5b91908080601f016020809104026020016040519081016040528093929190818152602001838380828437600081840152601f19601f8201169050808301925050505050505091929192905050506115ed565b005b61043a6004803603602081101561042457600080fd5b810190808035906020019092919050505061198b565b6040518080602001898152602001888152602001806020018060200187151515158152602001806020018060200186810386528e818151815260200191508051906020019080838360005b838110156104a0578082015181840152602081019050610485565b50505050905090810190601f1680156104cd5780820380516001836020036101000a031916815260200191505b5086810385528b818151815260200191508051906020019080838360005b838110156105065780820151818401526020810190506104eb565b50505050905090810190601f1680156105335780820380516001836020036101000a031916815260200191505b5086810384528a818151815260200191508051906020019080838360005b8381101561056c578082015181840152602081019050610551565b50505050905090810190601f1680156105995780820380516001836020036101000a031916815260200191505b50868103835288818151815260200191508051906020019080838360005b838110156105d25780820151818401526020810190506105b7565b50505050905090810190601f1680156105ff5780820380516001836020036101000a031916815260200191505b50868103825287818151815260200191508051906020019080838360005b8381101561063857808201518184015260208101905061061d565b50505050905090810190601f1680156106655780820380516001836020036101000a031916815260200191505b509d505050505050505050505050505060405180910390f35b6106aa6004803603602081101561069457600080fd5b8101908080359060200190929190505050611d00565b005b6106ee600480360360208110156106c257600080fd5b81019080803573ffffffffffffffffffffffffffffffffffffffff169060200190929190505050611f59565b604051808215151515815260200191505060405180910390f35b61074a6004803603602081101561071e57600080fd5b81019080803573ffffffffffffffffffffffffffffffffffffffff169060200190929190505050611f79565b60405180806020018060200180602001848103845287818151815260200191508051906020019080838360005b83811015610792578082015181840152602081019050610777565b50505050905090810190601f1680156107bf5780820380516001836020036101000a031916815260200191505b50848103835286818151815260200191508051906020019080838360005b838110156107f85780820151818401526020810190506107dd565b50505050905090810190601f1680156108255780820380516001836020036101000a031916815260200191505b50848103825285818151815260200191508051906020019080838360005b8381101561085e578082015181840152602081019050610843565b50505050905090810190601f16801561088b5780820380516001836020036101000a031916815260200191505b50965050505050505060405180910390f35b610d9660048036036101608110156108b457600080fd5b81019080803590602001906401000000008111156108d157600080fd5b8201836020820111156108e357600080fd5b8035906020019184600183028401116401000000008311171561090557600080fd5b91908080601f016020809104026020016040519081016040528093929190818152602001838380828437600081840152601f19601f82011690508083019250505050505050919291929080359060200190929190803590602001909291908035906020019064010000000081111561097c57600080fd5b82018360208201111561098e57600080fd5b803590602001918460018302840111640100000000831117156109b057600080fd5b91908080601f016020809104026020016040519081016040528093929190818152602001838380828437600081840152601f19601f82011690508083019250505050505050919291929080359060200190640100000000811115610a1357600080fd5b820183602082011115610a2557600080fd5b80359060200191846001830284011164010000000083111715610a4757600080fd5b91908080601f016020809104026020016040519081016040528093929190818152602001838380828437600081840152601f19601f82011690508083019250505050505050919291929080359060200190640100000000811115610aaa57600080fd5b820183602082011115610abc57600080fd5b80359060200191846001830284011164010000000083111715610ade57600080fd5b91908080601f016020809104026020016040519081016040528093929190818152602001838380828437600081840152601f19601f82011690508083019250505050505050919291929080359060200190640100000000811115610b4157600080fd5b820183602082011115610b5357600080fd5b80359060200191846001830284011164010000000083111715610b7557600080fd5b91908080601f016020809104026020016040519081016040528093929190818152602001838380828437600081840152601f19601f82011690508083019250505050505050919291929080359060200190640100000000811115610bd857600080fd5b820183602082011115610bea57600080fd5b80359060200191846001830284011164010000000083111715610c0c57600080fd5b91908080601f016020809104026020016040519081016040528093929190818152602001838380828437600081840152601f19601f8201169050808301925050505050505091929192908035906020019092919080359060200190640100000000811115610c7957600080fd5b820183602082011115610c8b57600080fd5b80359060200191846001830284011164010000000083111715610cad57600080fd5b91908080601f016020809104026020016040519081016040528093929190818152602001838380828437600081840152601f19601f82011690508083019250505050505050919291929080359060200190640100000000811115610d1057600080fd5b820183602082011115610d2257600080fd5b80359060200191846001830284011164010000000083111715610d4457600080fd5b91908080601f016020809104026020016040519081016040528093929190818152602001838380828437600081840152601f19601f8201169050808301925050505050505091929192905050506121a6565b6040518082815260200191505060405180910390f35b610dee60048036036020811015610dc257600080fd5b81019080803573ffffffffffffffffffffffffffffffffffffffff169060200190929190505050612921565b604051808215151515815260200191505060405180910390f35b610e3460048036036020811015610e1e57600080fd5b8101908080359060200190929190505050612941565b6040518082815260200191505060405180910390f35b610e7660048036036020811015610e6057600080fd5b8101908080359060200190929190505050612a5e565b604051808373ffffffffffffffffffffffffffffffffffffffff1673ffffffffffffffffffffffffffffffffffffffff16815260200180602001828103825283818151815260200191508051906020019080838360005b83811015610ee8578082015181840152602081019050610ecd565b50505050905090810190601f168015610f155780820380516001836020036101000a031916815260200191505b50935050505060405180910390f35b610f5060048036036020811015610f3a57600080fd5b8101908080359060200190929190505050612b4d565b604051808060200180602001848152602001838103835286818151815260200191508051906020019080838360005b83811015610f9a578082015181840152602081019050610f7f565b50505050905090810190601f168015610fc75780820380516001836020036101000a031916815260200191505b50838103825285818151815260200191508051906020019080838360005b83811015611000578082015181840152602081019050610fe5565b50505050905090810190601f16801561102d5780820380516001836020036101000a031916815260200191505b509550505050505060405180910390f35b6110806004803603602081101561105457600080fd5b81019080803573ffffffffffffffffffffffffffffffffffffffff169060200190929190505050612cbd565b005b6000600260003373ffffffffffffffffffffffffffffffffffffffff1673ffffffffffffffffffffffffffffffffffffffff16815260200190815260200160002060009054906101000a900460ff16611143576040517f08c379a000000000000000000000000000000000000000000000000000000000815260040180806020018281038252601c8152602001807f4d73672e73656e646572206d7573742062652061207465737465722e0000000081525060200191505060405180910390fd5b600660003373ffffffffffffffffffffffffffffffffffffffff1673ffffffffffffffffffffffffffffffffffffffff16815260200190815260200160002080549050905090565b6000600480549050905090565b60006020528060005260406000206000915054906101000a900460ff1681565b6000803373ffffffffffffffffffffffffffffffffffffffff1673ffffffffffffffffffffffffffffffffffffffff16815260200190815260200160002060009054906101000a900460ff16611276576040517f08c379a000000000000000000000000000000000000000000000000000000000815260040180806020018281038252601f8152602001807f4d73672e73656e646572206d75737420626520616e20617574686f726974790081525060200191505060405180910390fd5b6000808273ffffffffffffffffffffffffffffffffffffffff1673ffffffffffffffffffffffffffffffffffffffff16815260200190815260200160002060009054906101000a900460ff1615611335576040517f08c379a000000000000000000000000000000000000000000000000000000000815260040180806020018281038252601b8152602001807f417574686f7269747920697320616c72656164792061646465642e000000000081525060200191505060405180910390fd5b60016000808373ffffffffffffffffffffffffffffffffffffffff1673ffffffffffffffffffffffffffffffffffffffff16815260200190815260200160002060006101000a81548160ff0219169083151502179055508073ffffffffffffffffffffffffffffffffffffffff167f550a8ae64ec9d6640b6f168a26d3e6364b90defe8110c92135aa775b279e54ea60405160405180910390a250565b6000803373ffffffffffffffffffffffffffffffffffffffff1673ffffffffffffffffffffffffffffffffffffffff16815260200190815260200160002060009054906101000a900460ff16611490576040517f08c379a000000000000000000000000000000000000000000000000000000000815260040180806020018281038252601f8152602001807f4d73672e73656e646572206d75737420626520616e20617574686f726974790081525060200191505060405180910390fd5b600160008273ffffffffffffffffffffffffffffffffffffffff1673ffffffffffffffffffffffffffffffffffffffff16815260200190815260200160002060009054906101000a900460ff1661154f576040517f08c379a000000000000000000000000000000000000000000000000000000000815260040180806020018281038252601a8152602001807f54657374657220697320616c7265616479207265766f6b65642e00000000000081525060200191505060405180910390fd5b6000600160008373ffffffffffffffffffffffffffffffffffffffff1673ffffffffffffffffffffffffffffffffffffffff16815260200190815260200160002060006101000a81548160ff0219169083151502179055508073ffffffffffffffffffffffffffffffffffffffff167f1908d54a9525bb49d9dc2dda007b76d9af3b1953f0b4a111529c0dc22ddcd0e260405160405180910390a250565b600260003373ffffffffffffffffffffffffffffffffffffffff1673ffffffffffffffffffffffffffffffffffffffff16815260200190815260200160002060009054906101000a900460ff16156116ad576040517f08c379a000000000000000000000000000000000000000000000000000000000815260040180806020018281038252601c8152602001807f4d73672e73656e64657220616c72656164792061207465737465722e0000000081525060200191505060405180910390fd5b6001600260003373ffffffffffffffffffffffffffffffffffffffff1673ffffffffffffffffffffffffffffffffffffffff16815260200190815260200160002060006101000a81548160ff021916908315150217905550604051806060016040528084815260200183815260200182815250600360003373ffffffffffffffffffffffffffffffffffffffff1673ffffffffffffffffffffffffffffffffffffffff168152602001908152602001600020600082015181600001908051906020019061177b929190612ed8565b506020820151816001019080519060200190611798929190612ed8565b5060408201518160020190805190602001906117b5929190612ed8565b509050506000600160003373ffffffffffffffffffffffffffffffffffffffff1673ffffffffffffffffffffffffffffffffffffffff16815260200190815260200160002060006101000a81548160ff021916908315150217905550816040518082805190602001908083835b602083106118455780518252602082019150602081019050602083039250611822565b6001836020036101000a0380198251168184511680821785525050505050509050019150506040518091039020836040518082805190602001908083835b602083106118a65780518252602082019150602081019050602083039250611883565b6001836020036101000a03801982511681845116808217855250505050505090500191505060405180910390203373ffffffffffffffffffffffffffffffffffffffff167f827cd4a8738768206686b91d563abe19203b0e2977995af3a2fec16165f7a9bd846040518080602001828103825283818151815260200191508051906020019080838360005b8381101561194c578082015181840152602081019050611931565b50505050905090810190601f1680156119795780820380516001836020036101000a031916815260200191505b509250505060405180910390a4505050565b60606000806060806000606080600060048a815481106119a757fe5b90600052602060002090600a02019050806000018054600181600116156101000203166002900480601f016020809104026020016040519081016040528092919081815260200182805460018160011615610100020316600290048015611a4f5780601f10611a2457610100808354040283529160200191611a4f565b820191906000526020600020905b815481529060010190602001808311611a3257829003601f168201915b505050505098508060020154975080600301549650806004018054600181600116156101000203166002900480601f016020809104026020016040519081016040528092919081815260200182805460018160011615610100020316600290048015611afc5780601f10611ad157610100808354040283529160200191611afc565b820191906000526020600020905b815481529060010190602001808311611adf57829003601f168201915b50505050509550806005018054600181600116156101000203166002900480601f016020809104026020016040519081016040528092919081815260200182805460018160011615610100020316600290048015611b9b5780601f10611b7057610100808354040283529160200191611b9b565b820191906000526020600020905b815481529060010190602001808311611b7e57829003601f168201915b505050505094508060060160009054906101000a900460ff169350806007018054600181600116156101000203166002900480601f016020809104026020016040519081016040528092919081815260200182805460018160011615610100020316600290048015611c4e5780601f10611c2357610100808354040283529160200191611c4e565b820191906000526020600020905b815481529060010190602001808311611c3157829003601f168201915b50505050509250806009018054600181600116156101000203166002900480601f016020809104026020016040519081016040528092919081815260200182805460018160011615610100020316600290048015611ced5780601f10611cc257610100808354040283529160200191611ced565b820191906000526020600020905b815481529060010190602001808311611cd057829003601f168201915b5050505050915050919395975091939597565b600260003373ffffffffffffffffffffffffffffffffffffffff1673ffffffffffffffffffffffffffffffffffffffff16815260200190815260200160002060009054906101000a900460ff16611dbf576040517f08c379a000000000000000000000000000000000000000000000000000000000815260040180806020018281038252601c8152602001807f4d73672e73656e646572206d7573742062652061207465737465722e0000000081525060200191505060405180910390fd5b600060048281548110611dce57fe5b90600052602060002090600a020190503373ffffffffffffffffffffffffffffffffffffffff168160010160009054906101000a900473ffffffffffffffffffffffffffffffffffffffff1673ffffffffffffffffffffffffffffffffffffffff1614611e86576040517f08c379a0000000000000000000000000000000000000000000000000000000008152600401808060200182810382526029815260200180612f7e6029913960400191505060405180910390fd5b8060060160009054906101000a900460ff1615611f0b576040517f08c379a000000000000000000000000000000000000000000000000000000000815260040180806020018281038252601f8152602001807f436572746966696361746520697320616c7265616479207265766f6b65642e0081525060200191505060405180910390fd5b60018160060160006101000a81548160ff021916908315150217905550817fefa6c5f47ac2523bb4db18032377bf7fdce0fa9d86eddcae1ca9bba38be615d760405160405180910390a25050565b60016020528060005260406000206000915054906101000a900460ff1681565b60608060606000600360008673ffffffffffffffffffffffffffffffffffffffff1673ffffffffffffffffffffffffffffffffffffffff1681526020019081526020016000209050806000018054600181600116156101000203166002900480601f0160208091040260200160405190810160405280929190818152602001828054600181600116156101000203166002900480156120595780601f1061202e57610100808354040283529160200191612059565b820191906000526020600020905b81548152906001019060200180831161203c57829003601f168201915b50505050509350806001018054600181600116156101000203166002900480601f0160208091040260200160405190810160405280929190818152602001828054600181600116156101000203166002900480156120f85780601f106120cd576101008083540402835291602001916120f8565b820191906000526020600020905b8154815290600101906020018083116120db57829003601f168201915b50505050509250806002018054600181600116156101000203166002900480601f0160208091040260200160405190810160405280929190818152602001828054600181600116156101000203166002900480156121975780601f1061216c57610100808354040283529160200191612197565b820191906000526020600020905b81548152906001019060200180831161217a57829003601f168201915b50505050509150509193909250565b6000600260003373ffffffffffffffffffffffffffffffffffffffff1673ffffffffffffffffffffffffffffffffffffffff16815260200190815260200160002060009054906101000a900460ff16612267576040517f08c379a000000000000000000000000000000000000000000000000000000000815260040180806020018281038252601c8152602001807f4d73672e73656e646572206d7573742062652061207465737465722e0000000081525060200191505060405180910390fd5b6000600480549050905060046040518061014001604052808f81526020013373ffffffffffffffffffffffffffffffffffffffff1681526020018e81526020018d81526020018c81526020018b81526020016000151581526020018a8152602001868152602001858152509080600181540180825580915050906001820390600052602060002090600a0201600090919290919091506000820151816000019080519060200190612319929190612ed8565b5060208201518160010160006101000a81548173ffffffffffffffffffffffffffffffffffffffff021916908373ffffffffffffffffffffffffffffffffffffffff16021790555060408201518160020155606082015181600301556080820151816004019080519060200190612391929190612ed8565b5060a08201518160050190805190602001906123ae929190612ed8565b5060c08201518160060160006101000a81548160ff02191690831515021790555060e08201518160070190805190602001906123eb929190612ed8565b50610100820151816008019080519060200190612409929190612ed8565b50610120820151816009019080519060200190612427929190612ed8565b505050503373ffffffffffffffffffffffffffffffffffffffff168d6040518082805190602001908083835b602083106124765780518252602082019150602081019050602083039250612453565b6001836020036101000a0380198251168184511680821785525050505050509050019150506040518091039020827f8f9f59fa3037a300c288a0d4d4731126d4aa63f7404ba0d36f45d92a594a49548f8f8f8f8f8c8c60405180888152602001878152602001806020018060200180602001806020018060200186810386528b818151815260200191508051906020019080838360005b8381101561252857808201518184015260208101905061250d565b50505050905090810190601f1680156125555780820380516001836020036101000a031916815260200191505b5086810385528a818151815260200191508051906020019080838360005b8381101561258e578082015181840152602081019050612573565b50505050905090810190601f1680156125bb5780820380516001836020036101000a031916815260200191505b50868103845289818151815260200191508051906020019080838360005b838110156125f45780820151818401526020810190506125d9565b50505050905090810190601f1680156126215780820380516001836020036101000a031916815260200191505b50868103835288818151815260200191508051906020019080838360005b8381101561265a57808201518184015260208101905061263f565b50505050905090810190601f1680156126875780820380516001836020036101000a031916815260200191505b50868103825287818151815260200191508051906020019080838360005b838110156126c05780820151818401526020810190506126a5565b50505050905090810190601f1680156126ed5780820380516001836020036101000a031916815260200191505b509c5050505050505050505050505060405180910390a46005604051806060016040528089815260200188815260200187815250908060018154018082558091505090600182039060005260206000209060030201600090919290919091506000820151816000019080519060200190612768929190612ed8565b506020820151816001019080519060200190612785929190612ed8565b5060408201518160020155505050807f206a52e63beb0d2ec0d50aee69a9fa9f406ff58a6d9818490adb412c0ffdb517888888604051808060200180602001848152602001838103835286818151815260200191508051906020019080838360005b838110156128025780820151818401526020810190506127e7565b50505050905090810190601f16801561282f5780820380516001836020036101000a031916815260200191505b50838103825285818151815260200191508051906020019080838360005b8381101561286857808201518184015260208101905061284d565b50505050905090810190601f1680156128955780820380516001836020036101000a031916815260200191505b509550505050505060405180910390a2600660003373ffffffffffffffffffffffffffffffffffffffff1673ffffffffffffffffffffffffffffffffffffffff168152602001908152602001600020819080600181540180825580915050906001820390600052602060002001600090919290919091505550809150509b9a5050505050505050505050565b60026020528060005260406000206000915054906101000a900460ff1681565b6000600260003373ffffffffffffffffffffffffffffffffffffffff1673ffffffffffffffffffffffffffffffffffffffff16815260200190815260200160002060009054906101000a900460ff16612a02576040517f08c379a000000000000000000000000000000000000000000000000000000000815260040180806020018281038252601c8152602001807f4d73672e73656e646572206d7573742062652061207465737465722e0000000081525060200191505060405180910390fd5b600660003373ffffffffffffffffffffffffffffffffffffffff1673ffffffffffffffffffffffffffffffffffffffff1681526020019081526020016000208281548110612a4c57fe5b90600052602060002001549050919050565b60006060600060048481548110612a7157fe5b90600052602060002090600a020190508060010160009054906101000a900473ffffffffffffffffffffffffffffffffffffffff169250806008018054600181600116156101000203166002900480601f016020809104026020016040519081016040528092919081815260200182805460018160011615610100020316600290048015612b405780601f10612b1557610100808354040283529160200191612b40565b820191906000526020600020905b815481529060010190602001808311612b2357829003601f168201915b5050505050915050915091565b60608060008060058581548110612b6057fe5b90600052602060002090600302019050806000018054600181600116156101000203166002900480601f016020809104026020016040519081016040528092919081815260200182805460018160011615610100020316600290048015612c085780601f10612bdd57610100808354040283529160200191612c08565b820191906000526020600020905b815481529060010190602001808311612beb57829003601f168201915b50505050509350806001018054600181600116156101000203166002900480601f016020809104026020016040519081016040528092919081815260200182805460018160011615610100020316600290048015612ca75780601f10612c7c57610100808354040283529160200191612ca7565b820191906000526020600020905b815481529060010190602001808311612c8a57829003601f168201915b5050505050925080600201549150509193909250565b6000803373ffffffffffffffffffffffffffffffffffffffff1673ffffffffffffffffffffffffffffffffffffffff16815260200190815260200160002060009054906101000a900460ff16612d7b576040517f08c379a000000000000000000000000000000000000000000000000000000000815260040180806020018281038252601f8152602001807f4d73672e73656e646572206d75737420626520616e20617574686f726974790081525060200191505060405180910390fd5b600160008273ffffffffffffffffffffffffffffffffffffffff1673ffffffffffffffffffffffffffffffffffffffff16815260200190815260200160002060009054906101000a900460ff1615612e3b576040517f08c379a000000000000000000000000000000000000000000000000000000000815260040180806020018281038252601b8152602001807f54657374657220697320616c726561647920617070726f7665642e000000000081525060200191505060405180910390fd5b60018060008373ffffffffffffffffffffffffffffffffffffffff1673ffffffffffffffffffffffffffffffffffffffff16815260200190815260200160002060006101000a81548160ff0219169083151502179055508073ffffffffffffffffffffffffffffffffffffffff167fd0cf6ecbed991ab251a2e1a1115167f2bcdd700a3d02fddec7d2cf1581c3e7b060405160405180910390a250565b828054600181600116156101000203166002900490600052602060002090601f016020900481019282601f10612f1957805160ff1916838001178555612f47565b82800160010185558215612f47579182015b82811115612f46578251825591602001919060010190612f2b565b5b509050612f549190612f58565b5090565b612f7a91905b80821115612f76576000816000905550600101612f5e565b5090565b9056fe5465737465722063616e206f6e6c79207265766f6b652074686569722063657274696669636174652ea265627a7a72315820c36e38b94d06ea75fec76d706172f0d7088397ae57f62332a1239f7dfbc3108f64736f6c63430005100032",
  "source": "pragma solidity ^0.5.0;\n\ncontract TestCertificate {\n    struct Tester {\n        string institutionName;\n        string location;\n        string contact; \n    }\n\n    struct Certificate {\n        string encryptedPatientId;\n        address testerAddress;\n        uint testTakenTimestamp;\n        uint certificateExpiryTimestamp;\n        string testType;\n        string testResult;\n        bool isRevoked;\n        string encryptedExternalDataPointer;\n        string digitalSignature;\n        string additionalInfo;\n    }\n\n    struct PatientDetail {\n        string patientAddress;\n        string patientGender;\n        uint patientAge;\n    }\n\n    // authority\n    mapping(address=>bool) public isAuthority;\n\n    // tester registry\n    mapping(address=>bool) public isTesterApproved;\n    mapping(address=>bool) public isTester;\n    mapping (address=>Tester) testers;\n\n    // test certificate\n    Certificate[] certificates;\n    PatientDetail[] patientsDetail;\n    mapping (address=>uint[]) testerCertificates;\n\n    event TesterRegistered(address indexed testerAddress, string indexed institutionName, string indexed location, string contact);\n    event CertificateCreated(uint indexed certificateId, string indexed encryptedPatientId, address indexed testerAddress, uint testTakenTimestamp, uint certificateExpiryTimestamp, string testType, string testResult, string encryptedExternalDataPointer, string digitalSignature, string additionalInfo);\n    event CertificateRevoked(uint indexed certificateId);\n    event PatientDetailAdded(uint indexed certificateId, string patientAddress, string patientGender, uint patientAge);\n    event TesterApproved(address indexed testerAddress);\n    event TesterRevoked(address indexed testerAddress);\n    event AuthorityAdded(address indexed authorityAddress);\n\n    constructor (address[] memory authorities) public {\n        for (uint256 i = 0; i < authorities.length; i++) {\n            isAuthority[authorities[i]] = true;\n        }\n    }\n\n    modifier onlyAuthority {\n        require(isAuthority[msg.sender], \"Msg.sender must be an authority\");\n        _;\n    }\n\n    modifier onlyTester {\n        require(isTester[msg.sender], \"Msg.sender must be a tester.\");\n        _;\n    }\n\n    modifier notTester {\n        require(!isTester[msg.sender], \"Msg.sender already a tester.\");\n        _;\n    }\n\n    function register(string memory institutionName, string memory location, string memory contact) public notTester {\n        isTester[msg.sender] = true;\n        testers[msg.sender] = Tester({\n            institutionName: institutionName,\n            location: location,\n            contact: contact\n        });\n\n        isTesterApproved[msg.sender] = false;\n\n        emit TesterRegistered(msg.sender, institutionName, location, contact);\n    }\n\n    function getTesterDetail(address testerAddress) public view returns (\n        string memory institutionName,\n        string memory location,\n        string memory contact\n    ) {\n        Tester storage detail = testers[testerAddress];\n\n        institutionName = detail.institutionName;\n        location = detail.location;\n        contact = detail.contact;\n    }\n\n    function createTestCertificate(string memory encryptedPatientId, uint testTakenTimestamp, uint certificateExpiryTimestamp, string memory testType, string memory testResult, string memory encryptedExternalDataPointer, string memory patientAddress, string memory patientGender, uint patientAge, string memory digitalSignature, string memory additionalInfo) public onlyTester returns (uint id) {\n        uint certificateId = certificates.length;\n\n        certificates.push(Certificate({\n            encryptedPatientId: encryptedPatientId,\n            testerAddress: msg.sender,\n            testTakenTimestamp: testTakenTimestamp,\n            certificateExpiryTimestamp: certificateExpiryTimestamp,\n            testType: testType,\n            testResult: testResult,\n            isRevoked: false,\n            encryptedExternalDataPointer: encryptedExternalDataPointer,\n            digitalSignature: digitalSignature,\n            additionalInfo: additionalInfo\n        }));\n\n        emit CertificateCreated(certificateId, encryptedPatientId, msg.sender, testTakenTimestamp, certificateExpiryTimestamp, testType, testResult, encryptedExternalDataPointer, digitalSignature, additionalInfo);\n\n        patientsDetail.push(PatientDetail({\n            patientAddress: patientAddress,\n            patientGender: patientGender,\n            patientAge: patientAge\n        }));\n\n        emit PatientDetailAdded(certificateId, patientAddress, patientGender, patientAge);\n\n        testerCertificates[msg.sender].push(certificateId);\n\n        return certificateId;\n    }\n\n    function revokeTestCertificate(uint certificateId) public onlyTester {\n        Certificate storage cert = certificates[certificateId];\n        \n        require(cert.testerAddress == msg.sender, \"Tester can only revoke their certificate.\");\n        require(!cert.isRevoked, \"Certificate is already revoked.\");\n        \n        cert.isRevoked = true;\n\n        emit CertificateRevoked(certificateId);\n    }\n\n    function getCertificate(uint certificateId) public view\n    returns (\n        string memory encryptedPatientId,\n        uint testTakenTimestamp,\n        uint certificateExpiryTimestamp,\n        string memory testType,\n        string memory testResult,\n        bool isRevoked,\n        string memory encryptedExternalDataPointer,\n        string memory additionalInfo\n    ) {\n        Certificate storage cert = certificates[certificateId];\n        \n        encryptedPatientId = cert.encryptedPatientId;\n        testTakenTimestamp = cert.testTakenTimestamp;\n        certificateExpiryTimestamp = cert.certificateExpiryTimestamp;\n        testType = cert.testType;\n        testResult = cert.testResult;\n        isRevoked = cert.isRevoked;\n        encryptedExternalDataPointer = cert.encryptedExternalDataPointer;\n        additionalInfo = cert.additionalInfo;\n    }\n\n    function getPatientDetail(uint certificateId) public view\n    returns (\n        string memory patientAddress,\n        string memory patientGender,\n        uint patientAge\n    ) {\n        PatientDetail storage detail = patientsDetail[certificateId];\n\n        patientAddress = detail.patientAddress;\n        patientGender = detail.patientGender;\n        patientAge = detail.patientAge;\n    }\n\n    function getCertificateDigitalSignature(uint certificateId) public view returns (\n        address testerAddress,\n        string memory digitalSignature\n    ) {\n        Certificate storage cert = certificates[certificateId];\n        \n        testerAddress = cert.testerAddress;\n        digitalSignature = cert.digitalSignature;\n    }\n\n    function getCertificateAmountByTester() public view onlyTester returns (uint amount) {\n        return testerCertificates[msg.sender].length;\n    }\n\n    function getCertificateId(uint idx) public view onlyTester returns (uint certificateId) {\n        return testerCertificates[msg.sender][idx];\n    }\n\n    function getCertificatesAmount() public view returns (uint amount) {\n        return certificates.length;\n    }\n\n    function approveTester(address tester) public onlyAuthority {\n        require(!isTesterApproved[tester], \"Tester is already approved.\");\n        isTesterApproved[tester] = true;\n\n        emit TesterApproved(tester);\n    }\n\n    function revokeTester(address tester) public onlyAuthority {\n        require(isTesterApproved[tester], \"Tester is already revoked.\");\n        isTesterApproved[tester] = false;\n\n        emit TesterRevoked(tester);\n    }\n\n    function addAuthority(address authority) public onlyAuthority {\n        require(!isAuthority[authority], \"Authority is already added.\");\n        isAuthority[authority] = true;\n\n        emit AuthorityAdded(authority);\n    }\n}\n",
  "sourcePath": "/home/rakhmad/kuliah/TA/test-certificate/contracts/TestCertificate.sol",
  "compiler": {
    "name": "solc",
    "version": "0.5.16+commit.9c3226ce.Emscripten.clang"
  },
  "schemaVersion": "3.4.0",
  "updatedAt": "2021-05-27T05:30:31.644Z",
  "networkType": "ethereum",
  "devdoc": {
    "methods": {}
  },
  "userdoc": {
    "methods": {}
  }
}