{
  "contractName": "TestCertificate",
  "abi": [
    {
      "inputs": [
        {
          "internalType": "address",
          "name": "registry",
          "type": "address"
        }
      ],
      "payable": false,
      "stateMutability": "nonpayable",
      "type": "constructor"
    },
    {
      "constant": true,
      "inputs": [],
      "name": "registryContract",
      "outputs": [
        {
          "internalType": "address",
          "name": "",
          "type": "address"
        }
      ],
      "payable": false,
      "stateMutability": "view",
      "type": "function"
    },
    {
      "constant": false,
      "inputs": [
        {
          "internalType": "string",
          "name": "encryptedPatientId",
          "type": "string"
        },
        {
          "internalType": "uint256",
          "name": "testTakenTimestamp",
          "type": "uint256"
        },
        {
          "internalType": "uint256",
          "name": "certificateExpiryTimestamp",
          "type": "uint256"
        },
        {
          "internalType": "string",
          "name": "testType",
          "type": "string"
        },
        {
          "internalType": "string",
          "name": "testResult",
          "type": "string"
        },
        {
          "internalType": "string",
          "name": "encryptedExternalDataPointer",
          "type": "string"
        },
        {
          "internalType": "string",
          "name": "patientAddress",
          "type": "string"
        },
        {
          "internalType": "string",
          "name": "patientGender",
          "type": "string"
        },
        {
          "internalType": "uint256",
          "name": "patientAge",
          "type": "uint256"
        },
        {
          "internalType": "string",
          "name": "digitalSiganture",
          "type": "string"
        }
      ],
      "name": "createTestCertificate",
      "outputs": [],
      "payable": false,
      "stateMutability": "nonpayable",
      "type": "function"
    },
    {
      "constant": false,
      "inputs": [
        {
          "internalType": "string",
          "name": "encryptedPatientId",
          "type": "string"
        }
      ],
      "name": "revokeTestCertificate",
      "outputs": [],
      "payable": false,
      "stateMutability": "nonpayable",
      "type": "function"
    },
    {
      "constant": true,
      "inputs": [
        {
          "internalType": "string",
          "name": "encryptedPatientId",
          "type": "string"
        }
      ],
      "name": "getCertificate",
      "outputs": [
        {
          "internalType": "uint256",
          "name": "testTakenTimestamp",
          "type": "uint256"
        },
        {
          "internalType": "uint256",
          "name": "certificateExpiryTimestamp",
          "type": "uint256"
        },
        {
          "internalType": "string",
          "name": "testType",
          "type": "string"
        },
        {
          "internalType": "string",
          "name": "testResult",
          "type": "string"
        },
        {
          "internalType": "bool",
          "name": "isRevoked",
          "type": "bool"
        },
        {
          "internalType": "string",
          "name": "encryptedExternalDataPointer",
          "type": "string"
        },
        {
          "internalType": "string",
          "name": "digitalSiganture",
          "type": "string"
        }
      ],
      "payable": false,
      "stateMutability": "view",
      "type": "function"
    },
    {
      "constant": true,
      "inputs": [
        {
          "internalType": "string",
          "name": "encryptedPatientId",
          "type": "string"
        }
      ],
      "name": "getPatientDetail",
      "outputs": [
        {
          "internalType": "string",
          "name": "patientAddress",
          "type": "string"
        },
        {
          "internalType": "string",
          "name": "patientGender",
          "type": "string"
        },
        {
          "internalType": "uint256",
          "name": "patientAge",
          "type": "uint256"
        }
      ],
      "payable": false,
      "stateMutability": "view",
      "type": "function"
    },
    {
      "constant": false,
      "inputs": [],
      "name": "getCertificateAmmountByTester",
      "outputs": [
        {
          "internalType": "uint256",
          "name": "",
          "type": "uint256"
        }
      ],
      "payable": false,
      "stateMutability": "nonpayable",
      "type": "function"
    },
    {
      "constant": false,
      "inputs": [
        {
          "internalType": "uint256",
          "name": "idx",
          "type": "uint256"
        }
      ],
      "name": "getEncryptedPatientId",
      "outputs": [
        {
          "internalType": "string",
          "name": "",
          "type": "string"
        }
      ],
      "payable": false,
      "stateMutability": "nonpayable",
      "type": "function"
    }
  ],
  "bytecode": "0x608060405234801561001057600080fd5b50604051611d31380380611d318339818101604052602081101561003357600080fd5b810190808051906020019092919050505080600360006101000a81548173ffffffffffffffffffffffffffffffffffffffff021916908373ffffffffffffffffffffffffffffffffffffffff16021790555050611c9c806100956000396000f3fe608060405234801561001057600080fd5b506004361061007d5760003560e01c80637afe6d1f1161005b5780637afe6d1f1461022e578063aaada3931461024c578063ce223e9e146103f3578063ed0f2e75146108575761007d565b806303651674146100825780631e8660681461013d57806328c1f99b146101e4575b600080fd5b61013b6004803603602081101561009857600080fd5b81019080803590602001906401000000008111156100b557600080fd5b8201836020820111156100c757600080fd5b803590602001918460018302840111640100000000831117156100e957600080fd5b91908080601f016020809104026020016040519081016040528093929190818152602001838380828437600081840152601f19601f820116905080830192505050505050509192919290505050610ae8565b005b6101696004803603602081101561015357600080fd5b8101908080359060200190929190505050610def565b6040518080602001828103825283818151815260200191508051906020019080838360005b838110156101a957808201518184015260208101905061018e565b50505050905090810190601f1680156101d65780820380516001836020036101000a031916815260200191505b509250505060405180910390f35b6101ec611031565b604051808273ffffffffffffffffffffffffffffffffffffffff1673ffffffffffffffffffffffffffffffffffffffff16815260200191505060405180910390f35b610236611057565b6040518082815260200191505060405180910390f35b6103056004803603602081101561026257600080fd5b810190808035906020019064010000000081111561027f57600080fd5b82018360208201111561029157600080fd5b803590602001918460018302840111640100000000831117156102b357600080fd5b91908080601f016020809104026020016040519081016040528093929190818152602001838380828437600081840152601f19601f8201169050808301925050505050505091929192905050506111ed565b604051808060200180602001848152602001838103835286818151815260200191508051906020019080838360005b8381101561034f578082015181840152602081019050610334565b50505050905090810190601f16801561037c5780820380516001836020036101000a031916815260200191505b50838103825285818151815260200191508051906020019080838360005b838110156103b557808201518184015260208101905061039a565b50505050905090810190601f1680156103e25780820380516001836020036101000a031916815260200191505b509550505050505060405180910390f35b610855600480360361014081101561040a57600080fd5b810190808035906020019064010000000081111561042757600080fd5b82018360208201111561043957600080fd5b8035906020019184600183028401116401000000008311171561045b57600080fd5b91908080601f016020809104026020016040519081016040528093929190818152602001838380828437600081840152601f19601f8201169050808301925050505050505091929192908035906020019092919080359060200190929190803590602001906401000000008111156104d257600080fd5b8201836020820111156104e457600080fd5b8035906020019184600183028401116401000000008311171561050657600080fd5b91908080601f016020809104026020016040519081016040528093929190818152602001838380828437600081840152601f19601f8201169050808301925050505050505091929192908035906020019064010000000081111561056957600080fd5b82018360208201111561057b57600080fd5b8035906020019184600183028401116401000000008311171561059d57600080fd5b91908080601f016020809104026020016040519081016040528093929190818152602001838380828437600081840152601f19601f8201169050808301925050505050505091929192908035906020019064010000000081111561060057600080fd5b82018360208201111561061257600080fd5b8035906020019184600183028401116401000000008311171561063457600080fd5b91908080601f016020809104026020016040519081016040528093929190818152602001838380828437600081840152601f19601f8201169050808301925050505050505091929192908035906020019064010000000081111561069757600080fd5b8201836020820111156106a957600080fd5b803590602001918460018302840111640100000000831117156106cb57600080fd5b91908080601f016020809104026020016040519081016040528093929190818152602001838380828437600081840152601f19601f8201169050808301925050505050505091929192908035906020019064010000000081111561072e57600080fd5b82018360208201111561074057600080fd5b8035906020019184600183028401116401000000008311171561076257600080fd5b91908080601f016020809104026020016040519081016040528093929190818152602001838380828437600081840152601f19601f82011690508083019250505050505050919291929080359060200190929190803590602001906401000000008111156107cf57600080fd5b8201836020820111156107e157600080fd5b8035906020019184600183028401116401000000008311171561080357600080fd5b91908080601f016020809104026020016040519081016040528093929190818152602001838380828437600081840152601f19601f8201169050808301925050505050505091929192905050506113ab565b005b6109106004803603602081101561086d57600080fd5b810190808035906020019064010000000081111561088a57600080fd5b82018360208201111561089c57600080fd5b803590602001918460018302840111640100000000831117156108be57600080fd5b91908080601f016020809104026020016040519081016040528093929190818152602001838380828437600081840152601f19601f8201169050808301925050505050505091929192905050506117f8565b60405180888152602001878152602001806020018060200186151515158152602001806020018060200185810385528a818151815260200191508051906020019080838360005b83811015610972578082015181840152602081019050610957565b50505050905090810190601f16801561099f5780820380516001836020036101000a031916815260200191505b50858103845289818151815260200191508051906020019080838360005b838110156109d85780820151818401526020810190506109bd565b50505050905090810190601f168015610a055780820380516001836020036101000a031916815260200191505b50858103835287818151815260200191508051906020019080838360005b83811015610a3e578082015181840152602081019050610a23565b50505050905090810190601f168015610a6b5780820380516001836020036101000a031916815260200191505b50858103825286818151815260200191508051906020019080838360005b83811015610aa4578082015181840152602081019050610a89565b50505050905090810190601f168015610ad15780820380516001836020036101000a031916815260200191505b509b50505050505050505050505060405180910390f35b600360009054906101000a900473ffffffffffffffffffffffffffffffffffffffff1673ffffffffffffffffffffffffffffffffffffffff1663bd630dc7336040518263ffffffff1660e01b8152600401808273ffffffffffffffffffffffffffffffffffffffff1673ffffffffffffffffffffffffffffffffffffffff16815260200191505060206040518083038186803b158015610b8757600080fd5b505afa158015610b9b573d6000803e3d6000fd5b505050506040513d6020811015610bb157600080fd5b8101908080519060200190929190505050610c34576040517f08c379a000000000000000000000000000000000000000000000000000000000815260040180806020018281038252601c8152602001807f4d73672e73656e646572206d7573742062652061207465737465722e0000000081525060200191505060405180910390fd5b600080826040518082805190602001908083835b60208310610c6b5780518252602082019150602081019050602083039250610c48565b6001836020036101000a038019825116818451168082178552505050505050905001915050908152602001604051809103902090503373ffffffffffffffffffffffffffffffffffffffff168160000160009054906101000a900473ffffffffffffffffffffffffffffffffffffffff1673ffffffffffffffffffffffffffffffffffffffff161415610d49576040517f08c379a0000000000000000000000000000000000000000000000000000000008152600401808060200182810382526029815260200180611c3f6029913960400191505060405180910390fd5b8060050160009054906101000a900460ff1615610dce576040517f08c379a000000000000000000000000000000000000000000000000000000000815260040180806020018281038252601f8152602001807f436572746966696361746520697320616c7265616479207265766f6b65642e0081525060200191505060405180910390fd5b60018160050160006101000a81548160ff0219169083151502179055505050565b6060600360009054906101000a900473ffffffffffffffffffffffffffffffffffffffff1673ffffffffffffffffffffffffffffffffffffffff1663bd630dc7336040518263ffffffff1660e01b8152600401808273ffffffffffffffffffffffffffffffffffffffff1673ffffffffffffffffffffffffffffffffffffffff16815260200191505060206040518083038186803b158015610e9057600080fd5b505afa158015610ea4573d6000803e3d6000fd5b505050506040513d6020811015610eba57600080fd5b8101908080519060200190929190505050610f3d576040517f08c379a000000000000000000000000000000000000000000000000000000000815260040180806020018281038252601c8152602001807f4d73672e73656e646572206d7573742062652061207465737465722e0000000081525060200191505060405180910390fd5b600260003373ffffffffffffffffffffffffffffffffffffffff1673ffffffffffffffffffffffffffffffffffffffff1681526020019081526020016000208281548110610f8757fe5b906000526020600020018054600181600116156101000203166002900480601f0160208091040260200160405190810160405280929190818152602001828054600181600116156101000203166002900480156110255780601f10610ffa57610100808354040283529160200191611025565b820191906000526020600020905b81548152906001019060200180831161100857829003601f168201915b50505050509050919050565b600360009054906101000a900473ffffffffffffffffffffffffffffffffffffffff1681565b6000600360009054906101000a900473ffffffffffffffffffffffffffffffffffffffff1673ffffffffffffffffffffffffffffffffffffffff1663bd630dc7336040518263ffffffff1660e01b8152600401808273ffffffffffffffffffffffffffffffffffffffff1673ffffffffffffffffffffffffffffffffffffffff16815260200191505060206040518083038186803b1580156110f857600080fd5b505afa15801561110c573d6000803e3d6000fd5b505050506040513d602081101561112257600080fd5b81019080805190602001909291905050506111a5576040517f08c379a000000000000000000000000000000000000000000000000000000000815260040180806020018281038252601c8152602001807f4d73672e73656e646572206d7573742062652061207465737465722e0000000081525060200191505060405180910390fd5b600260003373ffffffffffffffffffffffffffffffffffffffff1673ffffffffffffffffffffffffffffffffffffffff16815260200190815260200160002080549050905090565b6060806000806001856040518082805190602001908083835b602083106112295780518252602082019150602081019050602083039250611206565b6001836020036101000a03801982511681845116808217855250505050505090500191505090815260200160405180910390209050806000018054600181600116156101000203166002900480601f0160208091040260200160405190810160405280929190818152602001828054600181600116156101000203166002900480156112f65780601f106112cb576101008083540402835291602001916112f6565b820191906000526020600020905b8154815290600101906020018083116112d957829003601f168201915b50505050509350806001018054600181600116156101000203166002900480601f0160208091040260200160405190810160405280929190818152602001828054600181600116156101000203166002900480156113955780601f1061136a57610100808354040283529160200191611395565b820191906000526020600020905b81548152906001019060200180831161137857829003601f168201915b5050505050925080600201549150509193909250565b600360009054906101000a900473ffffffffffffffffffffffffffffffffffffffff1673ffffffffffffffffffffffffffffffffffffffff1663bd630dc7336040518263ffffffff1660e01b8152600401808273ffffffffffffffffffffffffffffffffffffffff1673ffffffffffffffffffffffffffffffffffffffff16815260200191505060206040518083038186803b15801561144a57600080fd5b505afa15801561145e573d6000803e3d6000fd5b505050506040513d602081101561147457600080fd5b81019080805190602001909291905050506114f7576040517f08c379a000000000000000000000000000000000000000000000000000000000815260040180806020018281038252601c8152602001807f4d73672e73656e646572206d7573742062652061207465737465722e0000000081525060200191505060405180910390fd5b6040518061010001604052803373ffffffffffffffffffffffffffffffffffffffff1681526020018a81526020018981526020018881526020018781526020016000151581526020018681526020018281525060008b6040518082805190602001908083835b60208310611580578051825260208201915060208101905060208303925061155d565b6001836020036101000a038019825116818451168082178552505050505050905001915050908152602001604051809103902060008201518160000160006101000a81548173ffffffffffffffffffffffffffffffffffffffff021916908373ffffffffffffffffffffffffffffffffffffffff1602179055506020820151816001015560408201518160020155606082015181600301908051906020019061162a929190611b19565b506080820151816004019080519060200190611647929190611b19565b5060a08201518160050160006101000a81548160ff02191690831515021790555060c0820151816006019080519060200190611684929190611b19565b5060e08201518160070190805190602001906116a1929190611b19565b5090505060405180606001604052808581526020018481526020018381525060018b6040518082805190602001908083835b602083106116f657805182526020820191506020810190506020830392506116d3565b6001836020036101000a03801982511681845116808217855250505050505090500191505090815260200160405180910390206000820151816000019080519060200190611745929190611b19565b506020820151816001019080519060200190611762929190611b19565b5060408201518160020155905050600260003373ffffffffffffffffffffffffffffffffffffffff1673ffffffffffffffffffffffffffffffffffffffff1681526020019081526020016000208a90806001815401808255809150509060018203906000526020600020016000909192909190915090805190602001906117ea929190611b99565b505050505050505050505050565b6000806060806000606080600080896040518082805190602001908083835b6020831061183a5780518252602082019150602081019050602083039250611817565b6001836020036101000a038019825116818451168082178552505050505050905001915050908152602001604051809103902090508060010154975080600201549650806003018054600181600116156101000203166002900480601f0160208091040260200160405190810160405280929190818152602001828054600181600116156101000203166002900480156119155780601f106118ea57610100808354040283529160200191611915565b820191906000526020600020905b8154815290600101906020018083116118f857829003601f168201915b50505050509550806004018054600181600116156101000203166002900480601f0160208091040260200160405190810160405280929190818152602001828054600181600116156101000203166002900480156119b45780601f10611989576101008083540402835291602001916119b4565b820191906000526020600020905b81548152906001019060200180831161199757829003601f168201915b505050505094508060050160009054906101000a900460ff169350806006018054600181600116156101000203166002900480601f016020809104026020016040519081016040528092919081815260200182805460018160011615610100020316600290048015611a675780601f10611a3c57610100808354040283529160200191611a67565b820191906000526020600020905b815481529060010190602001808311611a4a57829003601f168201915b50505050509250806007018054600181600116156101000203166002900480601f016020809104026020016040519081016040528092919081815260200182805460018160011615610100020316600290048015611b065780601f10611adb57610100808354040283529160200191611b06565b820191906000526020600020905b815481529060010190602001808311611ae957829003601f168201915b5050505050915050919395979092949650565b828054600181600116156101000203166002900490600052602060002090601f016020900481019282601f10611b5a57805160ff1916838001178555611b88565b82800160010185558215611b88579182015b82811115611b87578251825591602001919060010190611b6c565b5b509050611b959190611c19565b5090565b828054600181600116156101000203166002900490600052602060002090601f016020900481019282601f10611bda57805160ff1916838001178555611c08565b82800160010185558215611c08579182015b82811115611c07578251825591602001919060010190611bec565b5b509050611c159190611c19565b5090565b611c3b91905b80821115611c37576000816000905550600101611c1f565b5090565b9056fe5465737465722063616e206f6e6c79207265766f6b652074686569722063657274696669636174652ea265627a7a723158207f4ea6d0bd3eeeab8b45ebb7760abd365bb3121a30a272f4dcff6ecb1be0320f64736f6c63430005100032",
  "source": "pragma solidity ^0.5.0;\n\nimport \"./TesterRegistry.sol\";\n\ncontract TestCertificate {\n    struct Certificate {\n        address testerAddress;\n        uint testTakenTimestamp;\n        uint certificateExpiryTimestamp;\n        string testType;\n        string testResult;\n        bool isRevoked;\n        string encryptedExternalDataPointer;\n        string digitalSiganture;\n    }\n\n    struct PatientDetail {\n        string patientAddress;\n        string patientGender;\n        uint patientAge;\n    }\n\n    mapping (string=>Certificate) certificates;\n    mapping (string=>PatientDetail) patientsDetail;\n    mapping (address=>string[]) testerCertificates;\n    address public registryContract;\n\n    constructor (address registry) public {\n        registryContract = registry;\n    }\n\n    modifier onlyTester {\n        require(TesterRegistry(registryContract).isTester(msg.sender), \"Msg.sender must be a tester.\");\n        _;\n    }\n\n    function createTestCertificate(string memory encryptedPatientId, uint testTakenTimestamp, uint certificateExpiryTimestamp, string memory testType, string memory testResult, string memory encryptedExternalDataPointer, string memory patientAddress, string memory patientGender, uint patientAge, string memory digitalSiganture) public onlyTester {\n        certificates[encryptedPatientId] = Certificate({\n            testerAddress: msg.sender,\n            testTakenTimestamp: testTakenTimestamp,\n            certificateExpiryTimestamp: certificateExpiryTimestamp,\n            testType: testType,\n            testResult: testResult,\n            isRevoked: false,\n            encryptedExternalDataPointer: encryptedExternalDataPointer,\n            digitalSiganture: digitalSiganture\n        });\n\n        patientsDetail[encryptedPatientId] = PatientDetail({\n            patientAddress: patientAddress,\n            patientGender: patientGender,\n            patientAge: patientAge\n        });\n\n        testerCertificates[msg.sender].push(encryptedPatientId);\n    }\n\n    function revokeTestCertificate(string memory encryptedPatientId) public onlyTester {\n        Certificate storage cert = certificates[encryptedPatientId];\n        require(cert.testerAddress != msg.sender, \"Tester can only revoke their certificate.\");\n        require(!cert.isRevoked, \"Certificate is already revoked.\");\n        cert.isRevoked = true;\n    }\n\n    function getCertificate(string memory encryptedPatientId) public view\n    returns (\n        uint testTakenTimestamp,\n        uint certificateExpiryTimestamp,\n        string memory testType,\n        string memory testResult,\n        bool isRevoked,\n        string memory encryptedExternalDataPointer,\n        string memory digitalSiganture\n    ) {\n        Certificate storage cert = certificates[encryptedPatientId];\n        \n        testTakenTimestamp = cert.testTakenTimestamp;\n        certificateExpiryTimestamp = cert.certificateExpiryTimestamp;\n        testType = cert.testType;\n        testResult = cert.testResult;\n        isRevoked = cert.isRevoked;\n        encryptedExternalDataPointer = cert.encryptedExternalDataPointer;\n        digitalSiganture = cert.digitalSiganture;\n    }\n\n    function getPatientDetail(string memory encryptedPatientId) public view\n    returns (\n        string memory patientAddress,\n        string memory patientGender,\n        uint patientAge\n    ) {\n        PatientDetail storage detail = patientsDetail[encryptedPatientId];\n\n        patientAddress = detail.patientAddress;\n        patientGender = detail.patientGender;\n        patientAge = detail.patientAge;\n    }\n\n    function getCertificateAmmountByTester() public onlyTester returns (uint) {\n        return testerCertificates[msg.sender].length;\n    }\n\n    function getEncryptedPatientId(uint idx) public onlyTester returns (string memory) {\n        return testerCertificates[msg.sender][idx];\n    }\n}\n",
  "sourcePath": "/home/rakhmad/kuliah/TA/test-certificate/contracts/TestCertificate.sol",
  "compiler": {
    "name": "solc",
    "version": "0.5.16+commit.9c3226ce.Emscripten.clang"
  },
  "schemaVersion": "3.3.4",
  "updatedAt": "2021-04-19T13:43:01.317Z",
  "networkType": "ethereum",
  "devdoc": {
    "methods": {}
  },
  "userdoc": {
    "methods": {}
  }
}