{
  "contractName": "TestCertificate",
  "abi": [
    {
      "anonymous": false,
      "inputs": [
        {
          "indexed": true,
          "internalType": "uint256",
          "name": "certificateId",
          "type": "uint256"
        },
        {
          "indexed": true,
          "internalType": "string",
          "name": "encryptedPatientId",
          "type": "string"
        },
        {
          "indexed": true,
          "internalType": "address",
          "name": "testerAddress",
          "type": "address"
        },
        {
          "indexed": false,
          "internalType": "uint256",
          "name": "testTakenTimestamp",
          "type": "uint256"
        },
        {
          "indexed": false,
          "internalType": "uint256",
          "name": "certificateExpiryTimestamp",
          "type": "uint256"
        },
        {
          "indexed": false,
          "internalType": "string",
          "name": "testType",
          "type": "string"
        },
        {
          "indexed": false,
          "internalType": "string",
          "name": "testResult",
          "type": "string"
        },
        {
          "indexed": false,
          "internalType": "string",
          "name": "encryptedExternalDataPointer",
          "type": "string"
        },
        {
          "indexed": false,
          "internalType": "string",
          "name": "digitalSignature",
          "type": "string"
        },
        {
          "indexed": false,
          "internalType": "string",
          "name": "additionalInfo",
          "type": "string"
        }
      ],
      "name": "CertificateCreated",
      "type": "event"
    },
    {
      "anonymous": false,
      "inputs": [
        {
          "indexed": true,
          "internalType": "uint256",
          "name": "certificateId",
          "type": "uint256"
        }
      ],
      "name": "CertificateRevoked",
      "type": "event"
    },
    {
      "anonymous": false,
      "inputs": [
        {
          "indexed": true,
          "internalType": "uint256",
          "name": "certificateId",
          "type": "uint256"
        },
        {
          "indexed": false,
          "internalType": "string",
          "name": "patientAddress",
          "type": "string"
        },
        {
          "indexed": false,
          "internalType": "string",
          "name": "patientGender",
          "type": "string"
        },
        {
          "indexed": false,
          "internalType": "uint256",
          "name": "patientAge",
          "type": "uint256"
        }
      ],
      "name": "PatientDetailAdded",
      "type": "event"
    },
    {
      "anonymous": false,
      "inputs": [
        {
          "indexed": true,
          "internalType": "address",
          "name": "testerAddress",
          "type": "address"
        },
        {
          "indexed": true,
          "internalType": "string",
          "name": "institutionName",
          "type": "string"
        },
        {
          "indexed": true,
          "internalType": "string",
          "name": "location",
          "type": "string"
        },
        {
          "indexed": false,
          "internalType": "string",
          "name": "contact",
          "type": "string"
        }
      ],
      "name": "TesterRegistered",
      "type": "event"
    },
    {
      "constant": true,
      "inputs": [
        {
          "internalType": "address",
          "name": "",
          "type": "address"
        }
      ],
      "name": "isTester",
      "outputs": [
        {
          "internalType": "bool",
          "name": "",
          "type": "bool"
        }
      ],
      "payable": false,
      "stateMutability": "view",
      "type": "function"
    },
    {
      "constant": true,
      "inputs": [],
      "name": "registryContract",
      "outputs": [
        {
          "internalType": "address",
          "name": "",
          "type": "address"
        }
      ],
      "payable": false,
      "stateMutability": "view",
      "type": "function"
    },
    {
      "constant": false,
      "inputs": [
        {
          "internalType": "string",
          "name": "institutionName",
          "type": "string"
        },
        {
          "internalType": "string",
          "name": "location",
          "type": "string"
        },
        {
          "internalType": "string",
          "name": "contact",
          "type": "string"
        }
      ],
      "name": "register",
      "outputs": [],
      "payable": false,
      "stateMutability": "nonpayable",
      "type": "function"
    },
    {
      "constant": true,
      "inputs": [
        {
          "internalType": "address",
          "name": "testerAddress",
          "type": "address"
        }
      ],
      "name": "getTesterDetail",
      "outputs": [
        {
          "internalType": "string",
          "name": "institutionName",
          "type": "string"
        },
        {
          "internalType": "string",
          "name": "location",
          "type": "string"
        },
        {
          "internalType": "string",
          "name": "contact",
          "type": "string"
        }
      ],
      "payable": false,
      "stateMutability": "view",
      "type": "function"
    },
    {
      "constant": false,
      "inputs": [
        {
          "internalType": "string",
          "name": "encryptedPatientId",
          "type": "string"
        },
        {
          "internalType": "uint256",
          "name": "testTakenTimestamp",
          "type": "uint256"
        },
        {
          "internalType": "uint256",
          "name": "certificateExpiryTimestamp",
          "type": "uint256"
        },
        {
          "internalType": "string",
          "name": "testType",
          "type": "string"
        },
        {
          "internalType": "string",
          "name": "testResult",
          "type": "string"
        },
        {
          "internalType": "string",
          "name": "encryptedExternalDataPointer",
          "type": "string"
        },
        {
          "internalType": "string",
          "name": "patientAddress",
          "type": "string"
        },
        {
          "internalType": "string",
          "name": "patientGender",
          "type": "string"
        },
        {
          "internalType": "uint256",
          "name": "patientAge",
          "type": "uint256"
        },
        {
          "internalType": "string",
          "name": "digitalSignature",
          "type": "string"
        },
        {
          "internalType": "string",
          "name": "additionalInfo",
          "type": "string"
        }
      ],
      "name": "createTestCertificate",
      "outputs": [
        {
          "internalType": "uint256",
          "name": "",
          "type": "uint256"
        }
      ],
      "payable": false,
      "stateMutability": "nonpayable",
      "type": "function"
    },
    {
      "constant": false,
      "inputs": [
        {
          "internalType": "uint256",
          "name": "certificateId",
          "type": "uint256"
        }
      ],
      "name": "revokeTestCertificate",
      "outputs": [],
      "payable": false,
      "stateMutability": "nonpayable",
      "type": "function"
    },
    {
      "constant": true,
      "inputs": [
        {
          "internalType": "uint256",
          "name": "certificateId",
          "type": "uint256"
        }
      ],
      "name": "getCertificate",
      "outputs": [
        {
          "internalType": "uint256",
          "name": "testTakenTimestamp",
          "type": "uint256"
        },
        {
          "internalType": "uint256",
          "name": "certificateExpiryTimestamp",
          "type": "uint256"
        },
        {
          "internalType": "string",
          "name": "testType",
          "type": "string"
        },
        {
          "internalType": "string",
          "name": "testResult",
          "type": "string"
        },
        {
          "internalType": "bool",
          "name": "isRevoked",
          "type": "bool"
        },
        {
          "internalType": "string",
          "name": "encryptedExternalDataPointer",
          "type": "string"
        },
        {
          "internalType": "string",
          "name": "digitalSignature",
          "type": "string"
        },
        {
          "internalType": "string",
          "name": "additionalInfo",
          "type": "string"
        }
      ],
      "payable": false,
      "stateMutability": "view",
      "type": "function"
    },
    {
      "constant": true,
      "inputs": [
        {
          "internalType": "uint256",
          "name": "certificateId",
          "type": "uint256"
        }
      ],
      "name": "getPatientDetail",
      "outputs": [
        {
          "internalType": "string",
          "name": "patientAddress",
          "type": "string"
        },
        {
          "internalType": "string",
          "name": "patientGender",
          "type": "string"
        },
        {
          "internalType": "uint256",
          "name": "patientAge",
          "type": "uint256"
        }
      ],
      "payable": false,
      "stateMutability": "view",
      "type": "function"
    },
    {
      "constant": true,
      "inputs": [],
      "name": "getCertificateAmountByTester",
      "outputs": [
        {
          "internalType": "uint256",
          "name": "",
          "type": "uint256"
        }
      ],
      "payable": false,
      "stateMutability": "view",
      "type": "function"
    },
    {
      "constant": true,
      "inputs": [
        {
          "internalType": "uint256",
          "name": "idx",
          "type": "uint256"
        }
      ],
      "name": "getCertificateId",
      "outputs": [
        {
          "internalType": "uint256",
          "name": "",
          "type": "uint256"
        }
      ],
      "payable": false,
      "stateMutability": "view",
      "type": "function"
    }
  ],
  "bytecode": "0x608060405234801561001057600080fd5b506124a1806100206000396000f3fe608060405234801561001057600080fd5b506004361061009e5760003560e01c8063a23f9f8011610066578063a23f9f8014610592578063a509265f14610727578063bd630dc714610c36578063bd9c000e14610c92578063d65b76d514610cd45761009e565b80631477d8aa146100a357806328c1f99b146100c15780634cd08d031461010b57806351640fee146102f45780637790402414610564575b600080fd5b6100ab610dee565b6040518082815260200191505060405180910390f35b6100c9610ef6565b604051808273ffffffffffffffffffffffffffffffffffffffff1673ffffffffffffffffffffffffffffffffffffffff16815260200191505060405180910390f35b6102f26004803603606081101561012157600080fd5b810190808035906020019064010000000081111561013e57600080fd5b82018360208201111561015057600080fd5b8035906020019184600183028401116401000000008311171561017257600080fd5b91908080601f016020809104026020016040519081016040528093929190818152602001838380828437600081840152601f19601f820116905080830192505050505050509192919290803590602001906401000000008111156101d557600080fd5b8201836020820111156101e757600080fd5b8035906020019184600183028401116401000000008311171561020957600080fd5b91908080601f016020809104026020016040519081016040528093929190818152602001838380828437600081840152601f19601f8201169050808301925050505050505091929192908035906020019064010000000081111561026c57600080fd5b82018360208201111561027e57600080fd5b803590602001918460018302840111640100000000831117156102a057600080fd5b91908080601f016020809104026020016040519081016040528093929190818152602001838380828437600081840152601f19601f820116905080830192505050505050509192919290505050610f1c565b005b6103206004803603602081101561030a57600080fd5b81019080803590602001909291905050506111a1565b6040518089815260200188815260200180602001806020018715151515815260200180602001806020018060200186810386528c818151815260200191508051906020019080838360005b8381101561038657808201518184015260208101905061036b565b50505050905090810190601f1680156103b35780820380516001836020036101000a031916815260200191505b5086810385528b818151815260200191508051906020019080838360005b838110156103ec5780820151818401526020810190506103d1565b50505050905090810190601f1680156104195780820380516001836020036101000a031916815260200191505b50868103845289818151815260200191508051906020019080838360005b83811015610452578082015181840152602081019050610437565b50505050905090810190601f16801561047f5780820380516001836020036101000a031916815260200191505b50868103835288818151815260200191508051906020019080838360005b838110156104b857808201518184015260208101905061049d565b50505050905090810190601f1680156104e55780820380516001836020036101000a031916815260200191505b50868103825287818151815260200191508051906020019080838360005b8381101561051e578082015181840152602081019050610503565b50505050905090810190601f16801561054b5780820380516001836020036101000a031916815260200191505b509d505050505050505050505050505060405180910390f35b6105906004803603602081101561057a57600080fd5b8101908080359060200190929190505050611516565b005b6105d4600480360360208110156105a857600080fd5b81019080803573ffffffffffffffffffffffffffffffffffffffff16906020019092919050505061176f565b60405180806020018060200180602001848103845287818151815260200191508051906020019080838360005b8381101561061c578082015181840152602081019050610601565b50505050905090810190601f1680156106495780820380516001836020036101000a031916815260200191505b50848103835286818151815260200191508051906020019080838360005b83811015610682578082015181840152602081019050610667565b50505050905090810190601f1680156106af5780820380516001836020036101000a031916815260200191505b50848103825285818151815260200191508051906020019080838360005b838110156106e85780820151818401526020810190506106cd565b50505050905090810190601f1680156107155780820380516001836020036101000a031916815260200191505b50965050505050505060405180910390f35b610c20600480360361016081101561073e57600080fd5b810190808035906020019064010000000081111561075b57600080fd5b82018360208201111561076d57600080fd5b8035906020019184600183028401116401000000008311171561078f57600080fd5b91908080601f016020809104026020016040519081016040528093929190818152602001838380828437600081840152601f19601f82011690508083019250505050505050919291929080359060200190929190803590602001909291908035906020019064010000000081111561080657600080fd5b82018360208201111561081857600080fd5b8035906020019184600183028401116401000000008311171561083a57600080fd5b91908080601f016020809104026020016040519081016040528093929190818152602001838380828437600081840152601f19601f8201169050808301925050505050505091929192908035906020019064010000000081111561089d57600080fd5b8201836020820111156108af57600080fd5b803590602001918460018302840111640100000000831117156108d157600080fd5b91908080601f016020809104026020016040519081016040528093929190818152602001838380828437600081840152601f19601f8201169050808301925050505050505091929192908035906020019064010000000081111561093457600080fd5b82018360208201111561094657600080fd5b8035906020019184600183028401116401000000008311171561096857600080fd5b91908080601f016020809104026020016040519081016040528093929190818152602001838380828437600081840152601f19601f820116905080830192505050505050509192919290803590602001906401000000008111156109cb57600080fd5b8201836020820111156109dd57600080fd5b803590602001918460018302840111640100000000831117156109ff57600080fd5b91908080601f016020809104026020016040519081016040528093929190818152602001838380828437600081840152601f19601f82011690508083019250505050505050919291929080359060200190640100000000811115610a6257600080fd5b820183602082011115610a7457600080fd5b80359060200191846001830284011164010000000083111715610a9657600080fd5b91908080601f016020809104026020016040519081016040528093929190818152602001838380828437600081840152601f19601f8201169050808301925050505050505091929192908035906020019092919080359060200190640100000000811115610b0357600080fd5b820183602082011115610b1557600080fd5b80359060200191846001830284011164010000000083111715610b3757600080fd5b91908080601f016020809104026020016040519081016040528093929190818152602001838380828437600081840152601f19601f82011690508083019250505050505050919291929080359060200190640100000000811115610b9a57600080fd5b820183602082011115610bac57600080fd5b80359060200191846001830284011164010000000083111715610bce57600080fd5b91908080601f016020809104026020016040519081016040528093929190818152602001838380828437600081840152601f19601f82011690508083019250505050505050919291929050505061199c565b6040518082815260200191505060405180910390f35b610c7860048036036020811015610c4c57600080fd5b81019080803573ffffffffffffffffffffffffffffffffffffffff1690602001909291905050506120f2565b604051808215151515815260200191505060405180910390f35b610cbe60048036036020811015610ca857600080fd5b8101908080359060200190929190505050612112565b6040518082815260200191505060405180910390f35b610d0060048036036020811015610cea57600080fd5b810190808035906020019092919050505061222e565b604051808060200180602001848152602001838103835286818151815260200191508051906020019080838360005b83811015610d4a578082015181840152602081019050610d2f565b50505050905090810190601f168015610d775780820380516001836020036101000a031916815260200191505b50838103825285818151815260200191508051906020019080838360005b83811015610db0578082015181840152602081019050610d95565b50505050905090810190601f168015610ddd5780820380516001836020036101000a031916815260200191505b509550505050505060405180910390f35b60008060003373ffffffffffffffffffffffffffffffffffffffff1673ffffffffffffffffffffffffffffffffffffffff16815260200190815260200160002060009054906101000a900460ff16610eae576040517f08c379a000000000000000000000000000000000000000000000000000000000815260040180806020018281038252601c8152602001807f4d73672e73656e646572206d7573742062652061207465737465722e0000000081525060200191505060405180910390fd5b600460003373ffffffffffffffffffffffffffffffffffffffff1673ffffffffffffffffffffffffffffffffffffffff16815260200190815260200160002080549050905090565b600560009054906101000a900473ffffffffffffffffffffffffffffffffffffffff1681565b60016000803373ffffffffffffffffffffffffffffffffffffffff1673ffffffffffffffffffffffffffffffffffffffff16815260200190815260200160002060006101000a81548160ff021916908315150217905550604051806060016040528084815260200183815260200182815250600160003373ffffffffffffffffffffffffffffffffffffffff1673ffffffffffffffffffffffffffffffffffffffff1681526020019081526020016000206000820151816000019080519060200190610fe992919061239e565b50602082015181600101908051906020019061100692919061239e565b50604082015181600201908051906020019061102392919061239e565b50905050816040518082805190602001908083835b6020831061105b5780518252602082019150602081019050602083039250611038565b6001836020036101000a0380198251168184511680821785525050505050509050019150506040518091039020836040518082805190602001908083835b602083106110bc5780518252602082019150602081019050602083039250611099565b6001836020036101000a03801982511681845116808217855250505050505090500191505060405180910390203373ffffffffffffffffffffffffffffffffffffffff167f827cd4a8738768206686b91d563abe19203b0e2977995af3a2fec16165f7a9bd846040518080602001828103825283818151815260200191508051906020019080838360005b83811015611162578082015181840152602081019050611147565b50505050905090810190601f16801561118f5780820380516001836020036101000a031916815260200191505b509250505060405180910390a4505050565b60008060608060006060806060600060028a815481106111bd57fe5b90600052602060002090600a020190508060020154985080600301549750806004018054600181600116156101000203166002900480601f0160208091040260200160405190810160405280929190818152602001828054600181600116156101000203166002900480156112735780601f1061124857610100808354040283529160200191611273565b820191906000526020600020905b81548152906001019060200180831161125657829003601f168201915b50505050509650806005018054600181600116156101000203166002900480601f0160208091040260200160405190810160405280929190818152602001828054600181600116156101000203166002900480156113125780601f106112e757610100808354040283529160200191611312565b820191906000526020600020905b8154815290600101906020018083116112f557829003601f168201915b505050505095508060060160009054906101000a900460ff169450806007018054600181600116156101000203166002900480601f0160208091040260200160405190810160405280929190818152602001828054600181600116156101000203166002900480156113c55780601f1061139a576101008083540402835291602001916113c5565b820191906000526020600020905b8154815290600101906020018083116113a857829003601f168201915b50505050509350806008018054600181600116156101000203166002900480601f0160208091040260200160405190810160405280929190818152602001828054600181600116156101000203166002900480156114645780601f1061143957610100808354040283529160200191611464565b820191906000526020600020905b81548152906001019060200180831161144757829003601f168201915b50505050509250806009018054600181600116156101000203166002900480601f0160208091040260200160405190810160405280929190818152602001828054600181600116156101000203166002900480156115035780601f106114d857610100808354040283529160200191611503565b820191906000526020600020905b8154815290600101906020018083116114e657829003601f168201915b5050505050915050919395975091939597565b6000803373ffffffffffffffffffffffffffffffffffffffff1673ffffffffffffffffffffffffffffffffffffffff16815260200190815260200160002060009054906101000a900460ff166115d4576040517f08c379a000000000000000000000000000000000000000000000000000000000815260040180806020018281038252601c8152602001807f4d73672e73656e646572206d7573742062652061207465737465722e0000000081525060200191505060405180910390fd5b6000600282815481106115e357fe5b90600052602060002090600a020190503373ffffffffffffffffffffffffffffffffffffffff168160010160009054906101000a900473ffffffffffffffffffffffffffffffffffffffff1673ffffffffffffffffffffffffffffffffffffffff16141561169c576040517f08c379a00000000000000000000000000000000000000000000000000000000081526004018080602001828103825260298152602001806124446029913960400191505060405180910390fd5b8060060160009054906101000a900460ff1615611721576040517f08c379a000000000000000000000000000000000000000000000000000000000815260040180806020018281038252601f8152602001807f436572746966696361746520697320616c7265616479207265766f6b65642e0081525060200191505060405180910390fd5b60018160060160006101000a81548160ff021916908315150217905550817fefa6c5f47ac2523bb4db18032377bf7fdce0fa9d86eddcae1ca9bba38be615d760405160405180910390a25050565b60608060606000600160008673ffffffffffffffffffffffffffffffffffffffff1673ffffffffffffffffffffffffffffffffffffffff1681526020019081526020016000209050806000018054600181600116156101000203166002900480601f01602080910402602001604051908101604052809291908181526020018280546001816001161561010002031660029004801561184f5780601f106118245761010080835404028352916020019161184f565b820191906000526020600020905b81548152906001019060200180831161183257829003601f168201915b50505050509350806001018054600181600116156101000203166002900480601f0160208091040260200160405190810160405280929190818152602001828054600181600116156101000203166002900480156118ee5780601f106118c3576101008083540402835291602001916118ee565b820191906000526020600020905b8154815290600101906020018083116118d157829003601f168201915b50505050509250806002018054600181600116156101000203166002900480601f01602080910402602001604051908101604052809291908181526020018280546001816001161561010002031660029004801561198d5780601f106119625761010080835404028352916020019161198d565b820191906000526020600020905b81548152906001019060200180831161197057829003601f168201915b50505050509150509193909250565b60008060003373ffffffffffffffffffffffffffffffffffffffff1673ffffffffffffffffffffffffffffffffffffffff16815260200190815260200160002060009054906101000a900460ff16611a5c576040517f08c379a000000000000000000000000000000000000000000000000000000000815260040180806020018281038252601c8152602001807f4d73672e73656e646572206d7573742062652061207465737465722e0000000081525060200191505060405180910390fd5b600060028054905090506040518061014001604052808e81526020013373ffffffffffffffffffffffffffffffffffffffff1681526020018d81526020018c81526020018b81526020018a81526020016000151581526020018981526020018581526020018481525060028281548110611ad257fe5b90600052602060002090600a02016000820151816000019080519060200190611afc92919061239e565b5060208201518160010160006101000a81548173ffffffffffffffffffffffffffffffffffffffff021916908373ffffffffffffffffffffffffffffffffffffffff16021790555060408201518160020155606082015181600301556080820151816004019080519060200190611b7492919061239e565b5060a0820151816005019080519060200190611b9192919061239e565b5060c08201518160060160006101000a81548160ff02191690831515021790555060e0820151816007019080519060200190611bce92919061239e565b50610100820151816008019080519060200190611bec92919061239e565b50610120820151816009019080519060200190611c0a92919061239e565b509050503373ffffffffffffffffffffffffffffffffffffffff168d6040518082805190602001908083835b60208310611c595780518252602082019150602081019050602083039250611c36565b6001836020036101000a0380198251168184511680821785525050505050509050019150506040518091039020827f8f9f59fa3037a300c288a0d4d4731126d4aa63f7404ba0d36f45d92a594a49548f8f8f8f8f8c8c60405180888152602001878152602001806020018060200180602001806020018060200186810386528b818151815260200191508051906020019080838360005b83811015611d0b578082015181840152602081019050611cf0565b50505050905090810190601f168015611d385780820380516001836020036101000a031916815260200191505b5086810385528a818151815260200191508051906020019080838360005b83811015611d71578082015181840152602081019050611d56565b50505050905090810190601f168015611d9e5780820380516001836020036101000a031916815260200191505b50868103845289818151815260200191508051906020019080838360005b83811015611dd7578082015181840152602081019050611dbc565b50505050905090810190601f168015611e045780820380516001836020036101000a031916815260200191505b50868103835288818151815260200191508051906020019080838360005b83811015611e3d578082015181840152602081019050611e22565b50505050905090810190601f168015611e6a5780820380516001836020036101000a031916815260200191505b50868103825287818151815260200191508051906020019080838360005b83811015611ea3578082015181840152602081019050611e88565b50505050905090810190601f168015611ed05780820380516001836020036101000a031916815260200191505b509c5050505050505050505050505060405180910390a460405180606001604052808881526020018781526020018681525060038281548110611f0f57fe5b90600052602060002090600302016000820151816000019080519060200190611f3992919061239e565b506020820151816001019080519060200190611f5692919061239e565b5060408201518160020155905050807f206a52e63beb0d2ec0d50aee69a9fa9f406ff58a6d9818490adb412c0ffdb517888888604051808060200180602001848152602001838103835286818151815260200191508051906020019080838360005b83811015611fd3578082015181840152602081019050611fb8565b50505050905090810190601f1680156120005780820380516001836020036101000a031916815260200191505b50838103825285818151815260200191508051906020019080838360005b8381101561203957808201518184015260208101905061201e565b50505050905090810190601f1680156120665780820380516001836020036101000a031916815260200191505b509550505050505060405180910390a2600460003373ffffffffffffffffffffffffffffffffffffffff1673ffffffffffffffffffffffffffffffffffffffff168152602001908152602001600020819080600181540180825580915050906001820390600052602060002001600090919290919091505550809150509b9a5050505050505050505050565b60006020528060005260406000206000915054906101000a900460ff1681565b60008060003373ffffffffffffffffffffffffffffffffffffffff1673ffffffffffffffffffffffffffffffffffffffff16815260200190815260200160002060009054906101000a900460ff166121d2576040517f08c379a000000000000000000000000000000000000000000000000000000000815260040180806020018281038252601c8152602001807f4d73672e73656e646572206d7573742062652061207465737465722e0000000081525060200191505060405180910390fd5b600460003373ffffffffffffffffffffffffffffffffffffffff1673ffffffffffffffffffffffffffffffffffffffff168152602001908152602001600020828154811061221c57fe5b90600052602060002001549050919050565b6060806000806003858154811061224157fe5b90600052602060002090600302019050806000018054600181600116156101000203166002900480601f0160208091040260200160405190810160405280929190818152602001828054600181600116156101000203166002900480156122e95780601f106122be576101008083540402835291602001916122e9565b820191906000526020600020905b8154815290600101906020018083116122cc57829003601f168201915b50505050509350806001018054600181600116156101000203166002900480601f0160208091040260200160405190810160405280929190818152602001828054600181600116156101000203166002900480156123885780601f1061235d57610100808354040283529160200191612388565b820191906000526020600020905b81548152906001019060200180831161236b57829003601f168201915b5050505050925080600201549150509193909250565b828054600181600116156101000203166002900490600052602060002090601f016020900481019282601f106123df57805160ff191683800117855561240d565b8280016001018555821561240d579182015b8281111561240c5782518255916020019190600101906123f1565b5b50905061241a919061241e565b5090565b61244091905b8082111561243c576000816000905550600101612424565b5090565b9056fe5465737465722063616e206f6e6c79207265766f6b652074686569722063657274696669636174652ea265627a7a7231582098317dadd88facfb1ae4f84b97796b40d68706fb19552a78249b3533d9f144d664736f6c63430005100032",
  "source": "pragma solidity ^0.5.0;\n\ncontract TestCertificate {\n    struct Tester {\n        string institutionName;\n        string location;\n        string contact; \n    }\n\n    struct Certificate {\n        string encryptedPatientId;\n        address testerAddress;\n        uint testTakenTimestamp;\n        uint certificateExpiryTimestamp;\n        string testType;\n        string testResult;\n        bool isRevoked;\n        string encryptedExternalDataPointer;\n        string digitalSignature;\n        string additionalInfo;\n    }\n\n    struct PatientDetail {\n        string patientAddress;\n        string patientGender;\n        uint patientAge;\n    }\n\n    // tester registry\n    mapping(address=>bool) public isTester;\n    mapping (address=>Tester) testers;\n\n    // test certificate\n    Certificate[] certificates;\n    PatientDetail[] patientsDetail;\n    mapping (address=>uint[]) testerCertificates;\n    address public registryContract;\n\n    event TesterRegistered(address indexed testerAddress, string indexed institutionName, string indexed location, string contact);\n    event CertificateCreated(uint indexed certificateId, string indexed encryptedPatientId, address indexed testerAddress, uint testTakenTimestamp, uint certificateExpiryTimestamp, string testType, string testResult, string encryptedExternalDataPointer, string digitalSignature, string additionalInfo);\n    event CertificateRevoked(uint indexed certificateId);\n    event PatientDetailAdded(uint indexed certificateId, string patientAddress, string patientGender, uint patientAge);\n\n    modifier onlyTester {\n        require(isTester[msg.sender], \"Msg.sender must be a tester.\");\n        _;\n    }\n\n    modifier notTester {\n        require(!isTester[msg.sender], \"Msg.sender already a tester.\");\n        _;\n    }\n\n    function register(string memory institutionName, string memory location, string memory contact) public {\n        isTester[msg.sender] = true;\n        testers[msg.sender] = Tester({\n            institutionName: institutionName,\n            location: location,\n            contact: contact\n        });\n\n        emit TesterRegistered(msg.sender, institutionName, location, contact);\n    }\n\n    function getTesterDetail(address testerAddress) public view returns (\n        string memory institutionName,\n        string memory location,\n        string memory contact\n    ) {\n        Tester storage detail = testers[testerAddress];\n\n        institutionName = detail.institutionName;\n        location = detail.location;\n        contact = detail.contact;\n    }\n\n    function createTestCertificate(string memory encryptedPatientId, uint256 testTakenTimestamp, uint256 certificateExpiryTimestamp, string memory testType, string memory testResult, string memory encryptedExternalDataPointer, string memory patientAddress, string memory patientGender, uint patientAge, string memory digitalSignature, string memory additionalInfo) public onlyTester returns (uint) {\n        uint certificateId = certificates.length;\n\n        certificates[certificateId] = Certificate({\n            encryptedPatientId: encryptedPatientId,\n            testerAddress: msg.sender,\n            testTakenTimestamp: testTakenTimestamp,\n            certificateExpiryTimestamp: certificateExpiryTimestamp,\n            testType: testType,\n            testResult: testResult,\n            isRevoked: false,\n            encryptedExternalDataPointer: encryptedExternalDataPointer,\n            digitalSignature: digitalSignature,\n            additionalInfo: additionalInfo\n        });\n\n        emit CertificateCreated(certificateId, encryptedPatientId, msg.sender, testTakenTimestamp, certificateExpiryTimestamp, testType, testResult, encryptedExternalDataPointer, digitalSignature, additionalInfo);\n\n        patientsDetail[certificateId] = PatientDetail({\n            patientAddress: patientAddress,\n            patientGender: patientGender,\n            patientAge: patientAge\n        });\n\n\n        emit PatientDetailAdded(certificateId, patientAddress, patientGender, patientAge);\n\n        testerCertificates[msg.sender].push(certificateId);\n\n        return certificateId;\n    }\n\n    function revokeTestCertificate(uint certificateId) public onlyTester {\n        Certificate storage cert = certificates[certificateId];\n        require(cert.testerAddress != msg.sender, \"Tester can only revoke their certificate.\");\n        require(!cert.isRevoked, \"Certificate is already revoked.\");\n        cert.isRevoked = true;\n\n        emit CertificateRevoked(certificateId);\n    }\n\n    function getCertificate(uint certificateId) public view\n    returns (\n        uint testTakenTimestamp,\n        uint certificateExpiryTimestamp,\n        string memory testType,\n        string memory testResult,\n        bool isRevoked,\n        string memory encryptedExternalDataPointer,\n        string memory digitalSignature,\n        string memory additionalInfo\n    ) {\n        Certificate storage cert = certificates[certificateId];\n        \n        testTakenTimestamp = cert.testTakenTimestamp;\n        certificateExpiryTimestamp = cert.certificateExpiryTimestamp;\n        testType = cert.testType;\n        testResult = cert.testResult;\n        isRevoked = cert.isRevoked;\n        encryptedExternalDataPointer = cert.encryptedExternalDataPointer;\n        digitalSignature = cert.digitalSignature;\n        additionalInfo = cert.additionalInfo;\n    }\n\n    function getPatientDetail(uint certificateId) public view\n    returns (\n        string memory patientAddress,\n        string memory patientGender,\n        uint patientAge\n    ) {\n        PatientDetail storage detail = patientsDetail[certificateId];\n\n        patientAddress = detail.patientAddress;\n        patientGender = detail.patientGender;\n        patientAge = detail.patientAge;\n    }\n\n    function getCertificateAmountByTester() public view onlyTester returns (uint) {\n        return testerCertificates[msg.sender].length;\n    }\n\n    function getCertificateId(uint idx) public view onlyTester returns (uint) {\n        return testerCertificates[msg.sender][idx];\n    }\n}\n",
  "sourcePath": "/home/rakhmad/kuliah/TA/test-certificate/contracts/TestCertificate.sol",
  "compiler": {
    "name": "solc",
    "version": "0.5.16+commit.9c3226ce.Emscripten.clang"
  },
  "schemaVersion": "3.3.4",
  "updatedAt": "2021-04-26T04:45:11.104Z",
  "devdoc": {
    "methods": {}
  },
  "userdoc": {
    "methods": {}
  }
}