{
  "contractName": "TestCertificate",
  "abi": [
    {
      "anonymous": false,
      "inputs": [
        {
          "indexed": true,
          "internalType": "uint256",
          "name": "certificateId",
          "type": "uint256"
        },
        {
          "indexed": true,
          "internalType": "string",
          "name": "encryptedPatientId",
          "type": "string"
        },
        {
          "indexed": true,
          "internalType": "address",
          "name": "testerAddress",
          "type": "address"
        },
        {
          "indexed": false,
          "internalType": "uint256",
          "name": "testTakenTimestamp",
          "type": "uint256"
        },
        {
          "indexed": false,
          "internalType": "uint256",
          "name": "certificateExpiryTimestamp",
          "type": "uint256"
        },
        {
          "indexed": false,
          "internalType": "string",
          "name": "testType",
          "type": "string"
        },
        {
          "indexed": false,
          "internalType": "string",
          "name": "testResult",
          "type": "string"
        },
        {
          "indexed": false,
          "internalType": "string",
          "name": "encryptedExternalDataPointer",
          "type": "string"
        },
        {
          "indexed": false,
          "internalType": "string",
          "name": "digitalSignature",
          "type": "string"
        },
        {
          "indexed": false,
          "internalType": "string",
          "name": "additionalInfo",
          "type": "string"
        }
      ],
      "name": "CertificateCreated",
      "type": "event"
    },
    {
      "anonymous": false,
      "inputs": [
        {
          "indexed": true,
          "internalType": "uint256",
          "name": "certificateId",
          "type": "uint256"
        }
      ],
      "name": "CertificateRevoked",
      "type": "event"
    },
    {
      "anonymous": false,
      "inputs": [
        {
          "indexed": true,
          "internalType": "uint256",
          "name": "certificateId",
          "type": "uint256"
        },
        {
          "indexed": false,
          "internalType": "string",
          "name": "patientAddress",
          "type": "string"
        },
        {
          "indexed": false,
          "internalType": "string",
          "name": "patientGender",
          "type": "string"
        },
        {
          "indexed": false,
          "internalType": "uint256",
          "name": "patientAge",
          "type": "uint256"
        }
      ],
      "name": "PatientDetailAdded",
      "type": "event"
    },
    {
      "anonymous": false,
      "inputs": [
        {
          "indexed": true,
          "internalType": "address",
          "name": "testerAddress",
          "type": "address"
        },
        {
          "indexed": true,
          "internalType": "string",
          "name": "institutionName",
          "type": "string"
        },
        {
          "indexed": true,
          "internalType": "string",
          "name": "location",
          "type": "string"
        },
        {
          "indexed": false,
          "internalType": "string",
          "name": "contact",
          "type": "string"
        }
      ],
      "name": "TesterRegistered",
      "type": "event"
    },
    {
      "constant": true,
      "inputs": [
        {
          "internalType": "address",
          "name": "",
          "type": "address"
        }
      ],
      "name": "isTester",
      "outputs": [
        {
          "internalType": "bool",
          "name": "",
          "type": "bool"
        }
      ],
      "payable": false,
      "stateMutability": "view",
      "type": "function"
    },
    {
      "constant": false,
      "inputs": [
        {
          "internalType": "string",
          "name": "institutionName",
          "type": "string"
        },
        {
          "internalType": "string",
          "name": "location",
          "type": "string"
        },
        {
          "internalType": "string",
          "name": "contact",
          "type": "string"
        }
      ],
      "name": "register",
      "outputs": [],
      "payable": false,
      "stateMutability": "nonpayable",
      "type": "function"
    },
    {
      "constant": true,
      "inputs": [
        {
          "internalType": "address",
          "name": "testerAddress",
          "type": "address"
        }
      ],
      "name": "getTesterDetail",
      "outputs": [
        {
          "internalType": "string",
          "name": "institutionName",
          "type": "string"
        },
        {
          "internalType": "string",
          "name": "location",
          "type": "string"
        },
        {
          "internalType": "string",
          "name": "contact",
          "type": "string"
        }
      ],
      "payable": false,
      "stateMutability": "view",
      "type": "function"
    },
    {
      "constant": false,
      "inputs": [
        {
          "internalType": "string",
          "name": "encryptedPatientId",
          "type": "string"
        },
        {
          "internalType": "uint256",
          "name": "testTakenTimestamp",
          "type": "uint256"
        },
        {
          "internalType": "uint256",
          "name": "certificateExpiryTimestamp",
          "type": "uint256"
        },
        {
          "internalType": "string",
          "name": "testType",
          "type": "string"
        },
        {
          "internalType": "string",
          "name": "testResult",
          "type": "string"
        },
        {
          "internalType": "string",
          "name": "encryptedExternalDataPointer",
          "type": "string"
        },
        {
          "internalType": "string",
          "name": "patientAddress",
          "type": "string"
        },
        {
          "internalType": "string",
          "name": "patientGender",
          "type": "string"
        },
        {
          "internalType": "uint256",
          "name": "patientAge",
          "type": "uint256"
        },
        {
          "internalType": "string",
          "name": "digitalSignature",
          "type": "string"
        },
        {
          "internalType": "string",
          "name": "additionalInfo",
          "type": "string"
        }
      ],
      "name": "createTestCertificate",
      "outputs": [
        {
          "internalType": "uint256",
          "name": "id",
          "type": "uint256"
        }
      ],
      "payable": false,
      "stateMutability": "nonpayable",
      "type": "function"
    },
    {
      "constant": false,
      "inputs": [
        {
          "internalType": "uint256",
          "name": "certificateId",
          "type": "uint256"
        }
      ],
      "name": "revokeTestCertificate",
      "outputs": [],
      "payable": false,
      "stateMutability": "nonpayable",
      "type": "function"
    },
    {
      "constant": true,
      "inputs": [
        {
          "internalType": "uint256",
          "name": "certificateId",
          "type": "uint256"
        }
      ],
      "name": "getCertificate",
      "outputs": [
        {
          "internalType": "string",
          "name": "encryptedPatientId",
          "type": "string"
        },
        {
          "internalType": "uint256",
          "name": "testTakenTimestamp",
          "type": "uint256"
        },
        {
          "internalType": "uint256",
          "name": "certificateExpiryTimestamp",
          "type": "uint256"
        },
        {
          "internalType": "string",
          "name": "testType",
          "type": "string"
        },
        {
          "internalType": "string",
          "name": "testResult",
          "type": "string"
        },
        {
          "internalType": "bool",
          "name": "isRevoked",
          "type": "bool"
        },
        {
          "internalType": "string",
          "name": "encryptedExternalDataPointer",
          "type": "string"
        },
        {
          "internalType": "string",
          "name": "additionalInfo",
          "type": "string"
        }
      ],
      "payable": false,
      "stateMutability": "view",
      "type": "function"
    },
    {
      "constant": true,
      "inputs": [
        {
          "internalType": "uint256",
          "name": "certificateId",
          "type": "uint256"
        }
      ],
      "name": "getPatientDetail",
      "outputs": [
        {
          "internalType": "string",
          "name": "patientAddress",
          "type": "string"
        },
        {
          "internalType": "string",
          "name": "patientGender",
          "type": "string"
        },
        {
          "internalType": "uint256",
          "name": "patientAge",
          "type": "uint256"
        }
      ],
      "payable": false,
      "stateMutability": "view",
      "type": "function"
    },
    {
      "constant": true,
      "inputs": [
        {
          "internalType": "uint256",
          "name": "certificateId",
          "type": "uint256"
        }
      ],
      "name": "getCertificateDigitalSignature",
      "outputs": [
        {
          "internalType": "address",
          "name": "testerAddress",
          "type": "address"
        },
        {
          "internalType": "string",
          "name": "digitalSignature",
          "type": "string"
        }
      ],
      "payable": false,
      "stateMutability": "view",
      "type": "function"
    },
    {
      "constant": true,
      "inputs": [],
      "name": "getCertificateAmountByTester",
      "outputs": [
        {
          "internalType": "uint256",
          "name": "amount",
          "type": "uint256"
        }
      ],
      "payable": false,
      "stateMutability": "view",
      "type": "function"
    },
    {
      "constant": true,
      "inputs": [
        {
          "internalType": "uint256",
          "name": "idx",
          "type": "uint256"
        }
      ],
      "name": "getCertificateId",
      "outputs": [
        {
          "internalType": "uint256",
          "name": "certificateId",
          "type": "uint256"
        }
      ],
      "payable": false,
      "stateMutability": "view",
      "type": "function"
    }
  ],
  "bytecode": "0x608060405234801561001057600080fd5b5061261d806100206000396000f3fe608060405234801561001057600080fd5b506004361061009e5760003560e01c8063a509265f11610066578063a509265f146106dd578063bd630dc714610bec578063bd9c000e14610c48578063d57374be14610c8a578063d65b76d514610d645761009e565b80631477d8aa146100a35780634cd08d03146100c157806351640fee146102aa578063779040241461051a578063a23f9f8014610548575b600080fd5b6100ab610e7e565b6040518082815260200191505060405180910390f35b6102a8600480360360608110156100d757600080fd5b81019080803590602001906401000000008111156100f457600080fd5b82018360208201111561010657600080fd5b8035906020019184600183028401116401000000008311171561012857600080fd5b91908080601f016020809104026020016040519081016040528093929190818152602001838380828437600081840152601f19601f8201169050808301925050505050505091929192908035906020019064010000000081111561018b57600080fd5b82018360208201111561019d57600080fd5b803590602001918460018302840111640100000000831117156101bf57600080fd5b91908080601f016020809104026020016040519081016040528093929190818152602001838380828437600081840152601f19601f8201169050808301925050505050505091929192908035906020019064010000000081111561022257600080fd5b82018360208201111561023457600080fd5b8035906020019184600183028401116401000000008311171561025657600080fd5b91908080601f016020809104026020016040519081016040528093929190818152602001838380828437600081840152601f19601f820116905080830192505050505050509192919290505050610f86565b005b6102d6600480360360208110156102c057600080fd5b810190808035906020019092919050505061120b565b6040518080602001898152602001888152602001806020018060200187151515158152602001806020018060200186810386528e818151815260200191508051906020019080838360005b8381101561033c578082015181840152602081019050610321565b50505050905090810190601f1680156103695780820380516001836020036101000a031916815260200191505b5086810385528b818151815260200191508051906020019080838360005b838110156103a2578082015181840152602081019050610387565b50505050905090810190601f1680156103cf5780820380516001836020036101000a031916815260200191505b5086810384528a818151815260200191508051906020019080838360005b838110156104085780820151818401526020810190506103ed565b50505050905090810190601f1680156104355780820380516001836020036101000a031916815260200191505b50868103835288818151815260200191508051906020019080838360005b8381101561046e578082015181840152602081019050610453565b50505050905090810190601f16801561049b5780820380516001836020036101000a031916815260200191505b50868103825287818151815260200191508051906020019080838360005b838110156104d45780820151818401526020810190506104b9565b50505050905090810190601f1680156105015780820380516001836020036101000a031916815260200191505b509d505050505050505050505050505060405180910390f35b6105466004803603602081101561053057600080fd5b8101908080359060200190929190505050611580565b005b61058a6004803603602081101561055e57600080fd5b81019080803573ffffffffffffffffffffffffffffffffffffffff1690602001909291905050506117d8565b60405180806020018060200180602001848103845287818151815260200191508051906020019080838360005b838110156105d25780820151818401526020810190506105b7565b50505050905090810190601f1680156105ff5780820380516001836020036101000a031916815260200191505b50848103835286818151815260200191508051906020019080838360005b8381101561063857808201518184015260208101905061061d565b50505050905090810190601f1680156106655780820380516001836020036101000a031916815260200191505b50848103825285818151815260200191508051906020019080838360005b8381101561069e578082015181840152602081019050610683565b50505050905090810190601f1680156106cb5780820380516001836020036101000a031916815260200191505b50965050505050505060405180910390f35b610bd660048036036101608110156106f457600080fd5b810190808035906020019064010000000081111561071157600080fd5b82018360208201111561072357600080fd5b8035906020019184600183028401116401000000008311171561074557600080fd5b91908080601f016020809104026020016040519081016040528093929190818152602001838380828437600081840152601f19601f8201169050808301925050505050505091929192908035906020019092919080359060200190929190803590602001906401000000008111156107bc57600080fd5b8201836020820111156107ce57600080fd5b803590602001918460018302840111640100000000831117156107f057600080fd5b91908080601f016020809104026020016040519081016040528093929190818152602001838380828437600081840152601f19601f8201169050808301925050505050505091929192908035906020019064010000000081111561085357600080fd5b82018360208201111561086557600080fd5b8035906020019184600183028401116401000000008311171561088757600080fd5b91908080601f016020809104026020016040519081016040528093929190818152602001838380828437600081840152601f19601f820116905080830192505050505050509192919290803590602001906401000000008111156108ea57600080fd5b8201836020820111156108fc57600080fd5b8035906020019184600183028401116401000000008311171561091e57600080fd5b91908080601f016020809104026020016040519081016040528093929190818152602001838380828437600081840152601f19601f8201169050808301925050505050505091929192908035906020019064010000000081111561098157600080fd5b82018360208201111561099357600080fd5b803590602001918460018302840111640100000000831117156109b557600080fd5b91908080601f016020809104026020016040519081016040528093929190818152602001838380828437600081840152601f19601f82011690508083019250505050505050919291929080359060200190640100000000811115610a1857600080fd5b820183602082011115610a2a57600080fd5b80359060200191846001830284011164010000000083111715610a4c57600080fd5b91908080601f016020809104026020016040519081016040528093929190818152602001838380828437600081840152601f19601f8201169050808301925050505050505091929192908035906020019092919080359060200190640100000000811115610ab957600080fd5b820183602082011115610acb57600080fd5b80359060200191846001830284011164010000000083111715610aed57600080fd5b91908080601f016020809104026020016040519081016040528093929190818152602001838380828437600081840152601f19601f82011690508083019250505050505050919291929080359060200190640100000000811115610b5057600080fd5b820183602082011115610b6257600080fd5b80359060200191846001830284011164010000000083111715610b8457600080fd5b91908080601f016020809104026020016040519081016040528093929190818152602001838380828437600081840152601f19601f820116905080830192505050505050509192919290505050611a05565b6040518082815260200191505060405180910390f35b610c2e60048036036020811015610c0257600080fd5b81019080803573ffffffffffffffffffffffffffffffffffffffff16906020019092919050505061217f565b604051808215151515815260200191505060405180910390f35b610c7460048036036020811015610c5e57600080fd5b810190808035906020019092919050505061219f565b6040518082815260200191505060405180910390f35b610cb660048036036020811015610ca057600080fd5b81019080803590602001909291905050506122bb565b604051808373ffffffffffffffffffffffffffffffffffffffff1673ffffffffffffffffffffffffffffffffffffffff16815260200180602001828103825283818151815260200191508051906020019080838360005b83811015610d28578082015181840152602081019050610d0d565b50505050905090810190601f168015610d555780820380516001836020036101000a031916815260200191505b50935050505060405180910390f35b610d9060048036036020811015610d7a57600080fd5b81019080803590602001909291905050506123aa565b604051808060200180602001848152602001838103835286818151815260200191508051906020019080838360005b83811015610dda578082015181840152602081019050610dbf565b50505050905090810190601f168015610e075780820380516001836020036101000a031916815260200191505b50838103825285818151815260200191508051906020019080838360005b83811015610e40578082015181840152602081019050610e25565b50505050905090810190601f168015610e6d5780820380516001836020036101000a031916815260200191505b509550505050505060405180910390f35b60008060003373ffffffffffffffffffffffffffffffffffffffff1673ffffffffffffffffffffffffffffffffffffffff16815260200190815260200160002060009054906101000a900460ff16610f3e576040517f08c379a000000000000000000000000000000000000000000000000000000000815260040180806020018281038252601c8152602001807f4d73672e73656e646572206d7573742062652061207465737465722e0000000081525060200191505060405180910390fd5b600460003373ffffffffffffffffffffffffffffffffffffffff1673ffffffffffffffffffffffffffffffffffffffff16815260200190815260200160002080549050905090565b60016000803373ffffffffffffffffffffffffffffffffffffffff1673ffffffffffffffffffffffffffffffffffffffff16815260200190815260200160002060006101000a81548160ff021916908315150217905550604051806060016040528084815260200183815260200182815250600160003373ffffffffffffffffffffffffffffffffffffffff1673ffffffffffffffffffffffffffffffffffffffff168152602001908152602001600020600082015181600001908051906020019061105392919061251a565b50602082015181600101908051906020019061107092919061251a565b50604082015181600201908051906020019061108d92919061251a565b50905050816040518082805190602001908083835b602083106110c557805182526020820191506020810190506020830392506110a2565b6001836020036101000a0380198251168184511680821785525050505050509050019150506040518091039020836040518082805190602001908083835b602083106111265780518252602082019150602081019050602083039250611103565b6001836020036101000a03801982511681845116808217855250505050505090500191505060405180910390203373ffffffffffffffffffffffffffffffffffffffff167f827cd4a8738768206686b91d563abe19203b0e2977995af3a2fec16165f7a9bd846040518080602001828103825283818151815260200191508051906020019080838360005b838110156111cc5780820151818401526020810190506111b1565b50505050905090810190601f1680156111f95780820380516001836020036101000a031916815260200191505b509250505060405180910390a4505050565b60606000806060806000606080600060028a8154811061122757fe5b90600052602060002090600a02019050806000018054600181600116156101000203166002900480601f0160208091040260200160405190810160405280929190818152602001828054600181600116156101000203166002900480156112cf5780601f106112a4576101008083540402835291602001916112cf565b820191906000526020600020905b8154815290600101906020018083116112b257829003601f168201915b505050505098508060020154975080600301549650806004018054600181600116156101000203166002900480601f01602080910402602001604051908101604052809291908181526020018280546001816001161561010002031660029004801561137c5780601f106113515761010080835404028352916020019161137c565b820191906000526020600020905b81548152906001019060200180831161135f57829003601f168201915b50505050509550806005018054600181600116156101000203166002900480601f01602080910402602001604051908101604052809291908181526020018280546001816001161561010002031660029004801561141b5780601f106113f05761010080835404028352916020019161141b565b820191906000526020600020905b8154815290600101906020018083116113fe57829003601f168201915b505050505094508060060160009054906101000a900460ff169350806007018054600181600116156101000203166002900480601f0160208091040260200160405190810160405280929190818152602001828054600181600116156101000203166002900480156114ce5780601f106114a3576101008083540402835291602001916114ce565b820191906000526020600020905b8154815290600101906020018083116114b157829003601f168201915b50505050509250806009018054600181600116156101000203166002900480601f01602080910402602001604051908101604052809291908181526020018280546001816001161561010002031660029004801561156d5780601f106115425761010080835404028352916020019161156d565b820191906000526020600020905b81548152906001019060200180831161155057829003601f168201915b5050505050915050919395975091939597565b6000803373ffffffffffffffffffffffffffffffffffffffff1673ffffffffffffffffffffffffffffffffffffffff16815260200190815260200160002060009054906101000a900460ff1661163e576040517f08c379a000000000000000000000000000000000000000000000000000000000815260040180806020018281038252601c8152602001807f4d73672e73656e646572206d7573742062652061207465737465722e0000000081525060200191505060405180910390fd5b60006002828154811061164d57fe5b90600052602060002090600a020190503373ffffffffffffffffffffffffffffffffffffffff168160010160009054906101000a900473ffffffffffffffffffffffffffffffffffffffff1673ffffffffffffffffffffffffffffffffffffffff1614611705576040517f08c379a00000000000000000000000000000000000000000000000000000000081526004018080602001828103825260298152602001806125c06029913960400191505060405180910390fd5b8060060160009054906101000a900460ff161561178a576040517f08c379a000000000000000000000000000000000000000000000000000000000815260040180806020018281038252601f8152602001807f436572746966696361746520697320616c7265616479207265766f6b65642e0081525060200191505060405180910390fd5b60018160060160006101000a81548160ff021916908315150217905550817fefa6c5f47ac2523bb4db18032377bf7fdce0fa9d86eddcae1ca9bba38be615d760405160405180910390a25050565b60608060606000600160008673ffffffffffffffffffffffffffffffffffffffff1673ffffffffffffffffffffffffffffffffffffffff1681526020019081526020016000209050806000018054600181600116156101000203166002900480601f0160208091040260200160405190810160405280929190818152602001828054600181600116156101000203166002900480156118b85780601f1061188d576101008083540402835291602001916118b8565b820191906000526020600020905b81548152906001019060200180831161189b57829003601f168201915b50505050509350806001018054600181600116156101000203166002900480601f0160208091040260200160405190810160405280929190818152602001828054600181600116156101000203166002900480156119575780601f1061192c57610100808354040283529160200191611957565b820191906000526020600020905b81548152906001019060200180831161193a57829003601f168201915b50505050509250806002018054600181600116156101000203166002900480601f0160208091040260200160405190810160405280929190818152602001828054600181600116156101000203166002900480156119f65780601f106119cb576101008083540402835291602001916119f6565b820191906000526020600020905b8154815290600101906020018083116119d957829003601f168201915b50505050509150509193909250565b60008060003373ffffffffffffffffffffffffffffffffffffffff1673ffffffffffffffffffffffffffffffffffffffff16815260200190815260200160002060009054906101000a900460ff16611ac5576040517f08c379a000000000000000000000000000000000000000000000000000000000815260040180806020018281038252601c8152602001807f4d73672e73656e646572206d7573742062652061207465737465722e0000000081525060200191505060405180910390fd5b6000600280549050905060026040518061014001604052808f81526020013373ffffffffffffffffffffffffffffffffffffffff1681526020018e81526020018d81526020018c81526020018b81526020016000151581526020018a8152602001868152602001858152509080600181540180825580915050906001820390600052602060002090600a0201600090919290919091506000820151816000019080519060200190611b7792919061251a565b5060208201518160010160006101000a81548173ffffffffffffffffffffffffffffffffffffffff021916908373ffffffffffffffffffffffffffffffffffffffff16021790555060408201518160020155606082015181600301556080820151816004019080519060200190611bef92919061251a565b5060a0820151816005019080519060200190611c0c92919061251a565b5060c08201518160060160006101000a81548160ff02191690831515021790555060e0820151816007019080519060200190611c4992919061251a565b50610100820151816008019080519060200190611c6792919061251a565b50610120820151816009019080519060200190611c8592919061251a565b505050503373ffffffffffffffffffffffffffffffffffffffff168d6040518082805190602001908083835b60208310611cd45780518252602082019150602081019050602083039250611cb1565b6001836020036101000a0380198251168184511680821785525050505050509050019150506040518091039020827f8f9f59fa3037a300c288a0d4d4731126d4aa63f7404ba0d36f45d92a594a49548f8f8f8f8f8c8c60405180888152602001878152602001806020018060200180602001806020018060200186810386528b818151815260200191508051906020019080838360005b83811015611d86578082015181840152602081019050611d6b565b50505050905090810190601f168015611db35780820380516001836020036101000a031916815260200191505b5086810385528a818151815260200191508051906020019080838360005b83811015611dec578082015181840152602081019050611dd1565b50505050905090810190601f168015611e195780820380516001836020036101000a031916815260200191505b50868103845289818151815260200191508051906020019080838360005b83811015611e52578082015181840152602081019050611e37565b50505050905090810190601f168015611e7f5780820380516001836020036101000a031916815260200191505b50868103835288818151815260200191508051906020019080838360005b83811015611eb8578082015181840152602081019050611e9d565b50505050905090810190601f168015611ee55780820380516001836020036101000a031916815260200191505b50868103825287818151815260200191508051906020019080838360005b83811015611f1e578082015181840152602081019050611f03565b50505050905090810190601f168015611f4b5780820380516001836020036101000a031916815260200191505b509c5050505050505050505050505060405180910390a46003604051806060016040528089815260200188815260200187815250908060018154018082558091505090600182039060005260206000209060030201600090919290919091506000820151816000019080519060200190611fc692919061251a565b506020820151816001019080519060200190611fe392919061251a565b5060408201518160020155505050807f206a52e63beb0d2ec0d50aee69a9fa9f406ff58a6d9818490adb412c0ffdb517888888604051808060200180602001848152602001838103835286818151815260200191508051906020019080838360005b83811015612060578082015181840152602081019050612045565b50505050905090810190601f16801561208d5780820380516001836020036101000a031916815260200191505b50838103825285818151815260200191508051906020019080838360005b838110156120c65780820151818401526020810190506120ab565b50505050905090810190601f1680156120f35780820380516001836020036101000a031916815260200191505b509550505050505060405180910390a2600460003373ffffffffffffffffffffffffffffffffffffffff1673ffffffffffffffffffffffffffffffffffffffff168152602001908152602001600020819080600181540180825580915050906001820390600052602060002001600090919290919091505550809150509b9a5050505050505050505050565b60006020528060005260406000206000915054906101000a900460ff1681565b60008060003373ffffffffffffffffffffffffffffffffffffffff1673ffffffffffffffffffffffffffffffffffffffff16815260200190815260200160002060009054906101000a900460ff1661225f576040517f08c379a000000000000000000000000000000000000000000000000000000000815260040180806020018281038252601c8152602001807f4d73672e73656e646572206d7573742062652061207465737465722e0000000081525060200191505060405180910390fd5b600460003373ffffffffffffffffffffffffffffffffffffffff1673ffffffffffffffffffffffffffffffffffffffff16815260200190815260200160002082815481106122a957fe5b90600052602060002001549050919050565b600060606000600284815481106122ce57fe5b90600052602060002090600a020190508060010160009054906101000a900473ffffffffffffffffffffffffffffffffffffffff169250806008018054600181600116156101000203166002900480601f01602080910402602001604051908101604052809291908181526020018280546001816001161561010002031660029004801561239d5780601f106123725761010080835404028352916020019161239d565b820191906000526020600020905b81548152906001019060200180831161238057829003601f168201915b5050505050915050915091565b606080600080600385815481106123bd57fe5b90600052602060002090600302019050806000018054600181600116156101000203166002900480601f0160208091040260200160405190810160405280929190818152602001828054600181600116156101000203166002900480156124655780601f1061243a57610100808354040283529160200191612465565b820191906000526020600020905b81548152906001019060200180831161244857829003601f168201915b50505050509350806001018054600181600116156101000203166002900480601f0160208091040260200160405190810160405280929190818152602001828054600181600116156101000203166002900480156125045780601f106124d957610100808354040283529160200191612504565b820191906000526020600020905b8154815290600101906020018083116124e757829003601f168201915b5050505050925080600201549150509193909250565b828054600181600116156101000203166002900490600052602060002090601f016020900481019282601f1061255b57805160ff1916838001178555612589565b82800160010185558215612589579182015b8281111561258857825182559160200191906001019061256d565b5b509050612596919061259a565b5090565b6125bc91905b808211156125b85760008160009055506001016125a0565b5090565b9056fe5465737465722063616e206f6e6c79207265766f6b652074686569722063657274696669636174652ea265627a7a7231582000ccae82331e1a7f102eb5bbee71254167d7ea4543b18ded8fa016b532b2d64564736f6c63430005100032",
  "source": "pragma solidity ^0.5.0;\n\ncontract TestCertificate {\n    struct Tester {\n        string institutionName;\n        string location;\n        string contact; \n    }\n\n    struct Certificate {\n        string encryptedPatientId;\n        address testerAddress;\n        uint testTakenTimestamp;\n        uint certificateExpiryTimestamp;\n        string testType;\n        string testResult;\n        bool isRevoked;\n        string encryptedExternalDataPointer;\n        string digitalSignature;\n        string additionalInfo;\n    }\n\n    struct PatientDetail {\n        string patientAddress;\n        string patientGender;\n        uint patientAge;\n    }\n\n    // tester registry\n    mapping(address=>bool) public isTester;\n    mapping (address=>Tester) testers;\n\n    // test certificate\n    Certificate[] certificates;\n    PatientDetail[] patientsDetail;\n    mapping (address=>uint[]) testerCertificates;\n\n    event TesterRegistered(address indexed testerAddress, string indexed institutionName, string indexed location, string contact);\n    event CertificateCreated(uint indexed certificateId, string indexed encryptedPatientId, address indexed testerAddress, uint testTakenTimestamp, uint certificateExpiryTimestamp, string testType, string testResult, string encryptedExternalDataPointer, string digitalSignature, string additionalInfo);\n    event CertificateRevoked(uint indexed certificateId);\n    event PatientDetailAdded(uint indexed certificateId, string patientAddress, string patientGender, uint patientAge);\n\n    modifier onlyTester {\n        require(isTester[msg.sender], \"Msg.sender must be a tester.\");\n        _;\n    }\n\n    modifier notTester {\n        require(!isTester[msg.sender], \"Msg.sender already a tester.\");\n        _;\n    }\n\n    function register(string memory institutionName, string memory location, string memory contact) public {\n        isTester[msg.sender] = true;\n        testers[msg.sender] = Tester({\n            institutionName: institutionName,\n            location: location,\n            contact: contact\n        });\n\n        emit TesterRegistered(msg.sender, institutionName, location, contact);\n    }\n\n    function getTesterDetail(address testerAddress) public view returns (\n        string memory institutionName,\n        string memory location,\n        string memory contact\n    ) {\n        Tester storage detail = testers[testerAddress];\n\n        institutionName = detail.institutionName;\n        location = detail.location;\n        contact = detail.contact;\n    }\n\n    function createTestCertificate(string memory encryptedPatientId, uint testTakenTimestamp, uint certificateExpiryTimestamp, string memory testType, string memory testResult, string memory encryptedExternalDataPointer, string memory patientAddress, string memory patientGender, uint patientAge, string memory digitalSignature, string memory additionalInfo) public onlyTester returns (uint id) {\n        uint certificateId = certificates.length;\n\n        certificates.push(Certificate({\n            encryptedPatientId: encryptedPatientId,\n            testerAddress: msg.sender,\n            testTakenTimestamp: testTakenTimestamp,\n            certificateExpiryTimestamp: certificateExpiryTimestamp,\n            testType: testType,\n            testResult: testResult,\n            isRevoked: false,\n            encryptedExternalDataPointer: encryptedExternalDataPointer,\n            digitalSignature: digitalSignature,\n            additionalInfo: additionalInfo\n        }));\n\n        emit CertificateCreated(certificateId, encryptedPatientId, msg.sender, testTakenTimestamp, certificateExpiryTimestamp, testType, testResult, encryptedExternalDataPointer, digitalSignature, additionalInfo);\n\n        patientsDetail.push(PatientDetail({\n            patientAddress: patientAddress,\n            patientGender: patientGender,\n            patientAge: patientAge\n        }));\n\n        emit PatientDetailAdded(certificateId, patientAddress, patientGender, patientAge);\n\n        testerCertificates[msg.sender].push(certificateId);\n\n        return certificateId;\n    }\n\n    function revokeTestCertificate(uint certificateId) public onlyTester {\n        Certificate storage cert = certificates[certificateId];\n        \n        require(cert.testerAddress == msg.sender, \"Tester can only revoke their certificate.\");\n        require(!cert.isRevoked, \"Certificate is already revoked.\");\n        \n        cert.isRevoked = true;\n\n        emit CertificateRevoked(certificateId);\n    }\n\n    function getCertificate(uint certificateId) public view\n    returns (\n        string memory encryptedPatientId,\n        uint testTakenTimestamp,\n        uint certificateExpiryTimestamp,\n        string memory testType,\n        string memory testResult,\n        bool isRevoked,\n        string memory encryptedExternalDataPointer,\n        string memory additionalInfo\n    ) {\n        Certificate storage cert = certificates[certificateId];\n        \n        encryptedPatientId = cert.encryptedPatientId;\n        testTakenTimestamp = cert.testTakenTimestamp;\n        certificateExpiryTimestamp = cert.certificateExpiryTimestamp;\n        testType = cert.testType;\n        testResult = cert.testResult;\n        isRevoked = cert.isRevoked;\n        encryptedExternalDataPointer = cert.encryptedExternalDataPointer;\n        additionalInfo = cert.additionalInfo;\n    }\n\n    function getPatientDetail(uint certificateId) public view\n    returns (\n        string memory patientAddress,\n        string memory patientGender,\n        uint patientAge\n    ) {\n        PatientDetail storage detail = patientsDetail[certificateId];\n\n        patientAddress = detail.patientAddress;\n        patientGender = detail.patientGender;\n        patientAge = detail.patientAge;\n    }\n\n    function getCertificateDigitalSignature(uint certificateId) public view returns (\n        address testerAddress,\n        string memory digitalSignature\n    ) {\n        Certificate storage cert = certificates[certificateId];\n        \n        testerAddress = cert.testerAddress;\n        digitalSignature = cert.digitalSignature;\n    }\n\n    function getCertificateAmountByTester() public view onlyTester returns (uint amount) {\n        return testerCertificates[msg.sender].length;\n    }\n\n    function getCertificateId(uint idx) public view onlyTester returns (uint certificateId) {\n        return testerCertificates[msg.sender][idx];\n    }\n}\n",
  "sourcePath": "/home/rakhmad/kuliah/TA/test-certificate/contracts/TestCertificate.sol",
  "compiler": {
    "name": "solc",
    "version": "0.5.16+commit.9c3226ce.Emscripten.clang"
  },
  "schemaVersion": "3.4.0",
  "updatedAt": "2021-04-26T13:09:16.728Z",
  "networkType": "ethereum",
  "devdoc": {
    "methods": {}
  },
  "userdoc": {
    "methods": {}
  }
}